00                                                   1106750525000120ASSEMBLEIA LEGISLATIVA DO CE  ISAURA P D NOGUEIRA AV DESEMBAGADOR MOREIRA 2807                      DIONISIO TORRES     60170002FORTALEZA           CE008532773746ANDRESAPIRANGA@HOTMAIL.COM                                  2017031151         1               106750525000120                  *
10106750525000120000000000000000000000000000000000000ASSEMBLEIA LEGISLATIVA DO CEARA         AV DESEMBARGADOR MOREIRA 2807                     DIONISIO TORRES     60170002FORTALEZA           CE008532773732N7511600N100158200002402     000000000000000000000000000000000000000000000000000000000000                000000000000000000000000000000000000000000000    *
30106750525000120               100818522712003201512FERNANDO HUGO DA SILVA COLARES                                        00000008239                    2503195305199000000002532225000000000000000    000000000000000000000000000000000000000000000000000000000000                                                                                                  *
30106750525000120               108428267310204201212AGOSTINHO FREDERICO CARMO GOMES                                       00000005360                    2809196005199000000002532225000000000000000    000000000000000000000000000000000000000000000000000000000000                                                                                                  *
30106750525000120               190543317070201201712MARIO HELIO PORTELA REINALDO                                          00000021337                    3009195405199000000002532225000000000000000    000000000000000000000000000000000000000000000000000000000000                                                                                                  *
30106750525000120               190563747052001201512SILVANA OLIVEIRA DE SOUSA                                             00000007581                    1601196905199000000002532225000000000000000    000000000000000000000000000000000000000000000000000000000000                                                                                                  *
90999999999999999999999999999999999999999999999999999                                                                                                                                                                                                                                                                                                                  *