00                                                   1106750525000120ASSEMBLEIA LEGISLATIVA DO CE  ISAURA P D NOGUEIRA AV DESEMBAGADOR MOREIRA 2807                      DIONISIO TORRES     60170002FORTALEZA           CE008532773746ANDRESAPIRANGA@HOTMAIL.COM                                  2017031151         1               106750525000120                  *
10106750525000120000000000000000000000000000000000000ASSEMBLEIA LEGISLATIVA DO CEARA         AV DESEMBARGADOR MOREIRA 2807                     DIONISIO TORRES     60170002FORTALEZA           CE008532773732N7511600N100158200002402     000000000000000000000000000000000000000000000000000000000000                000000000000000000000000000000000000000000000    *
30106750525000120               100010859450102201712GUILHERME CAVALCANTE DE CARVALHO FILHO                                00000021956                    0412196305199000000000400000000000000000000    000000000000000000000000000000000000000000000000000000000000                                                                                                  *
30106750525000120               100113333640102201712GLAUCIA ALMEIDA BRASIL                                                00000023673                    2903194405199000000000230000000000000000000    000000000000000000000000000000000000000000000000000000000000                                                                                                  *
30106750525000120               100115308872103201712JOSE ALON AGUIAR PORTELA                                              00000017904                    0307194505199000000000100000000000000000000    000000000000000000000000000000000000000000000000000000000000                                                                                                  *
30106750525000120               100165646070102201712HELENA AUGUSTO MACHADO                                                00000010173                    3108193305199000000000100000000000000000000    000000000000000000000000000000000000000000000000000000000000                                                                                                  *
30106750525000120               100165655300104199912MARIA HELENA BRASIL NOGUEIRA                                          00000004297                    0312193305199000000000097185000000000000000    000000000000000000000000000000000000000000000000000000000000                                                                                                  *
30106750525000120               100165658670102201712LUIZA IARA DE OLIVEIRA                                                00000002982                    1612193805199000000000166666000000000000000    000000000000000000000000000000000000000000000000000000000000                                                                                                  *
30106750525000120               100165702240102201712LUCIA MARIA MARTINS DO VALE CARIOCA                                   00000004501                    2108194705199000000000416666000000000000000    000000000000000000000000000000000000000000000000000000000000                                                                                                  *
30106750525000120               100165705850102201712ANETE NOGUEIRA AGUIAR                                                 00000004472                    1303194005199000000000300000000000000000000    000000000000000000000000000000000000000000000000000000000000                                                                                                  *
30106750525000120               100165707200102201712FRANCISCA FERREIRA TER REEGEN                                         00000000050                    2301194205199000000000150000000000000000000    000000000000000000000000000000000000000000000000000000000000                                                                                                  *
30106750525000120               100179079073006201612TEREZINHA BEZERRA DE MENEZES                                          00000028437                    0304194305199000000000100000000000000000000    000000000000000000000000000000000000000000000000000000000000                                                                                                  *
30106750525000120               100179134510102201712VALDELIO ALVES LEITE                                                  00000015215                    3110194005199000000000333334000000000000000  05000000000029333000000000000000000000000000000000000000000000                                                                                                  *
30106750525000120               100264825730102201712JOSE MAURO IRENE                                                      00000021473                    2008194705199000000000500000000000000000000    000000000000000000000000000000000000000000000000000000000000                                                                                                  *
30106750525000120               100264851490102201712HERON TOMAZ FERRER                                                    00000007436                    2009194905199000000000100000000000000000000    000000000000000000000000000000000000000000000000000000000000                                                                                                  *
30106750525000120               100275756640102201712LUCIANO NUNES MAIA                                                    00000027577                    0701194905199000000000200000000000000000000    000000000000000000000000000000000000000000000000000000000000                                                                                                  *
30106750525000120               100276419772211200712NARCELIO SOBREIRA LIMAVERDE                                           00000008211                    0808193105199000000000822662000000000000000    000000000000000000000000000000000000000000000000000000000000                                                                                                  *
30106750525000120               100276453360102201712FRANCISCO FERNANDO SILVA CRUZ                                         00000021945                    0506194905199000000000500000000000000000000    000000000000000000000000000000000000000000000000000000000000                                                                                                  *
30106750525000120               100276471770102201712PAULO BATISTA FERREIRA NETO                                           00000009999                    0504194805199000000000180000000000000000000    000000000000000000000000000000000000000000000000000000000000                                                                                                  *
30106750525000120               100277255260110199112TEREZINHA MARIA CAMPOS                                                00000003265                    1707193705199000000001153808000000000000000    000000000000000000000000000000000000000000000000000000000000                                                                                                  *
30106750525000120               100277376560102201712FILINTO ELISIO BELCHIOR AGUIAR                                        00000004974                    0205193705199000000000263000000000000000000    000000000000000000000000000000000000000000000000000000000000                                                                                                  *
30106750525000120               100277769370106199112JOSE JUCA GERMANO                                                     00000001752                    1309192105199000000000093700000000000000000    000000000000000000000000000000000000000000000000000000000000                                                                                                  *
30106750525000120               100277960400102201712JOSE MARIA ALCANTARA DE OLIVEIRA                                      00000028530                    2610194405199000000000100000000000000000000    000000000000000000000000000000000000000000000000000000000000                                                                                                  *
30106750525000120               100278861470102201712VANIA FERREIRA GOMES MEIRA                                            00000003308                    2401194105199000000000350000000000000000000    000000000000000000000000000000000000000000000000000000000000                                                                                                  *
30106750525000120               100279043071305201412LUCIANO GIRAO SALES                                                   00000000992                    2303194405199000000000572029000000000000000    000000000000000000000000000000000000000000000000000000000000                                                                                                  *
30106750525000120               100279056642002201512MARIA TEREZINHA CAVALCANTE DE SOUZA                                   00000026409                    0808194805199000000000368334000000000000000    000000000000000000000000000000000000000000000000000000000000                                                                                                  *
30106750525000120               100279285080102201712LUCIA MARIA JACO ROCHA                                                00000006765                    2502194505199000000000150000000000000000000    000000000000000000000000000000000000000000000000000000000000                                                                                                  *
30106750525000120               100279391191501201312SONIA MARIA DE OLIVEIRA CORREIA                                       00000006792                    0302194105199000000000156166000000000000000    000000000000000000000000000000000000000000000000000000000000                                                                                                  *
30106750525000120               100279442520102201712WALMIRA SOARES DA SILVA                                               00000019317                    2807193805199000000000583334000000000000000    000000000000000000000000000000000000000000000000000000000000                                                                                                  *
30106750525000120               100394691390102201712FRANCISCO DE ASSIS LOPES                                              00000019094                    1801194805199000000000160000000000000000000    000000000000000000000000000000000000000000000000000000000000                                                                                                  *
30106750525000120               100394706410102201712JOSE AFRANIO PLUTARCO NOGUEIRA                                        00000027573                    2811194505199000000000150000000000000000000    000000000000000000000000000000000000000000000000000000000000                                                                                                  *
30106750525000120               100420943882204201612ANTONIO LUIZ ABREU DANTAS                                             00000002803                    2501194605199000000000866685000000000000000    000000000000000000000000000000000000000000000000000000000000                                                                                                  *
30106750525000120               100421044130102201712LUIZ GONZAGA NOGUEIRA MARQUES                                         00000017780                    0707193705199000000000416666000000000000000    000000000000000000000000000000000000000000000000000000000000                                                                                                  *
30106750525000120               100430248040102201712TEREZINHA RODRIGUES FONTENELE                                         00000021894                    0101194105199000000000475000000000000000000    000000000000000000000000000000000000000000000000000000000000                                                                                                  *
30106750525000120               100435243430104199712TEREZINHA DE FREITAS BAIMA                                            00000002080                    2403193705199000000000349865000000000000000    000000000000000000000000000000000000000000000000000000000000                                                                                                  *
30106750525000120               100461397930102201712VIRGILIO CORACY ALVES CAVALCANTE                                      00000002631                    2607195005199000000000370000000000000000000    000000000000000000000000000000000000000000000000000000000000                                                                                                  *
30106750525000120               100471635310102201712SERGIO DE ASSIS PEDROSA                                               00000028367                    1209195105199000000000250000000000000000000    000000000000000000000000000000000000000000000000000000000000                                                                                                  *
30106750525000120               100598685430103201712VICENTE FLAVIO BELEM PINHO                                            00000010252                    2610195505199000000000300000000000000000000    000000000000000000000000000000000000000000000000000000000000                                                                                                  *
30106750525000120               100630285380102201712ROBERTO SERGIO DE BARROS DA PONTE                                     00000029180                    0702195105199000000000500000000000000000000    000000000000000000000000000000000000000000000000000000000000                                                                                                  *
30106750525000120               100663402810102201712JOSE GARCEZ DOS SANTOS                                                00000027851                    2804194205199000000000250000000000000000000    000000000000000000000000000000000000000000000000000000000000                                                                                                  *
30106750525000120               100673622700103201712ELENITA COUTINHO MOTA                                                 00000003722                    0611194105199000000000130000000000000000000    000000000000000000000000000000000000000000000000000000000000                                                                                                  *
30106750525000120               100690020930103201712ANA MARIA VIEIRA BRAGA                                                00000002508                    2506194905199000000000416666000000000000000    000000000000000000000000000000000000000000000000000000000000                                                                                                  *
30106750525000120               100698222010102201712ANITA LEOCADIA COSTA DE OLIVEIRA                                      00000017818                    1201194705199000000000150000000000000000000    000000000000000000000000000000000000000000000000000000000000                                                                                                  *
30106750525000120               100709387730102201712GLAICE GONCALVES DE LUCENA FILGUEIRAS                                 00000005291                    1110195005199000000000100000000000000000000    000000000000000000000000000000000000000000000000000000000000                                                                                                  *
30106750525000120               100710655520102201712JOSE AIRTON DE LIMA FURTADO                                           00000024897                    0205194605199000000000250000000000000000000    000000000000000000000000000000000000000000000000000000000000                                                                                                  *
30106750525000120               100716993220102200712FRANCISCA LENIR SILVA                                                 00000016418                    1812195505199000000000500000000000000000000    000000000000000000000000000000000000000000000000000000000000                                                                                                  *
30106750525000120               100717856282002201512MARCIA MARIA BISPO DE SANTANA PEIXOTO                                 00000026456                    1304195505199000000001200000000000000000000    000000000000000000000000000000000000000000000000000000000000                                                                                                  *
30106750525000120               100723076570102201712ANA RESSURREICAO ANGELIM GOMES DA SILVA                               00000023789                    0504195305199000000000166666000000000000000    000000000000000000000000000000000000000000000000000000000000                                                                                                  *
30106750525000120               100756708330102201712MALVINA DE NAZARETH NUNES VELOSO                                      00000006557                    1802193305199000000000400000000000000000000    000000000000000000000000000000000000000000000000000000000000                                                                                                  *
30106750525000120               100756820410102201712RUTH RODRIGUES DE LIMA                                                00000003587                    0301193805199000000000400000000000000000000    000000000000000000000000000000000000000000000000000000000000                                                                                                  *
30106750525000120               100765685010102201712MARIA ARLENE BARBOSA DUTRA DE ARAUJO                                  00000018250                    0104195505199000000000166666000000000000000    000000000000000000000000000000000000000000000000000000000000                                                                                                  *
30106750525000120               100774012600103200712MARIA LUIZA DOS SANTOS VERAS                                          00000002804                    2410194605199000000000501314000000000000000    000000000000000000000000000000000000000000000000000000000000                                                                                                  *
30106750525000120               100781741010102201712FRANCISCO RONALD MACHADO DA COSTA                                     00000026917                    1002194505199000000000250000000000000000000    000000000000000000000000000000000000000000000000000000000000                                                                                                  *
30106750525000120               100816559050103201712ANTONIO EGBERTO RODRIGUES                                             00000029267                    2306195505199000000000300000000000000000000    000000000000000000000000000000000000000000000000000000000000                                                                                                  *
30106750525000120               100817928560101200312VERA LUCIA DE OLIVEIRA GOMES                                          00000009052                    2706194605199000000000423238000000000000000    000000000000000000000000000000000000000000000000000000000000                                                                                                  *
30106750525000120               100817939090102201712VILANY MARIA TOME CORDEIRO                                            00000006840                    2905194205199000000000166666000000000000000    000000000000000000000000000000000000000000000000000000000000                                                                                                  *
30106750525000120               100817992300102201712RIVANDI MARIA NOVAIS SOARES                                           00000016831                    2207195105199000000000250000000000000000000    000000000000000000000000000000000000000000000000000000000000                                                                                                  *
30106750525000120               100818220380102201712MARIA FATIMA SILVA COELHO                                             00000006230                    1204194005199000000000250000000000000000000    000000000000000000000000000000000000000000000000000000000000                                                                                                  *
30106750525000120               100818522712003201512FERNANDO HUGO DA SILVA COLARES                                        00000008239                    2503195305199000000002532225000000000000000    000000000000000000000000000000000000000000000000000000000000                                                                                                  *
30106750525000120               100818534641901201712AGUINALDO CARLOS DE SOUZA                                             00000023468                    1809194705199000000000900000000000000000000    000000000000000000000000000000000000000000000000000000000000                                                                                                  *
30106750525000120               100822200660102201712TADEU NOBRE RODRIGUES                                                 00000018566                    2911195005199000000000200000000000000000000    000000000000000000000000000000000000000000000000000000000000                                                                                                  *
30106750525000120               100822208990102201312MARIA GORETE ARAUJO MACEDO                                            00000016142                    2412195405199000000000903808000000000000000    000000000000000000000000000000000000000000000000000000000000                                                                                                  *
30106750525000120               100855358072302201512MARIA DE FATIMA SALES VICTORIANO                                      00000024630                    2503195605199000000000000000000000000075000    000000000000000000000000000000000000000075000000000000000000                                                                                                  *
32106750525000120               100855358072302201512MARIA DE FATIMA SALES VICTORIANO                                      L 16032017N                                                                                                                                                                                                                                 *
30106750525000120               100861702170107199412IARACI DE ALBUQUERQUE GALLOTE                                         00000001720                    1206195105199000000000117125000000000000000    000000000000000000000000000000000000000000000000000000000000                                                                                                  *
30106750525000120               100874128342202201512MARIA DE FATIMA DE CASTRO GINO                                        00000018081                    1010195205199000000000220000000000000000000    000000000000000000000000000000000000000000000000000000000000                                                                                                  *
30106750525000120               100875400930101200312ALEXANDRE HERCULANO DE CARVALHO                                       00000009058                    1408195505199000000000222832000000000000000    000000000000000000000000000000000000000000000000000000000000                                                                                                  *
30106750525000120               100889153330102201712LUIZ DEGLAUCI MELO                                                    00000019976                    3003194505199000000000416666000000000000000    000000000000000000000000000000000000000000000000000000000000                                                                                                  *
30106750525000120               100891019922102201312ROBERTO CESAR DE ALBUQUERQUE MENDONCA                                 00000024516                    2205195205199000000001256968000000000000000    000000000000000000000000000000000000000000000000000000000000                                                                                                  *
30106750525000120               100903657790102201712OSORIO BEZERRA NETO                                                   00000003772                    0707193905199000000000300000000000000000000    000000000000000000000000000000000000000000000000000000000000                                                                                                  *
30106750525000120               100913481500102201712VALMIR VILAR DE CARVALHO                                              00000021482                    2008194505199000000000500000000000000000000    000000000000000000000000000000000000000000000000000000000000                                                                                                  *
30106750525000120               100932774040102201712JESUS FERNANDES LEITE                                                 00000006530                    3112195405199000000000666666000000000000000    000000000000000000000000000000000000000000000000000000000000                                                                                                  *
30106750525000120               100960956090103201712ANTONIO CARLOS FELIX DA SILVA                                         00000025004                    2907195405199000000000250000000000000000000    000000000000000000000000000000000000000000000000000000000000                                                                                                  *
30106750525000120               100978929361911201512FRANCISCA LINHARES CANAFISTULA                                        00000027840                    2904194905199000000000100000000000000000000    000000000000000000000000000000000000000000000000000000000000                                                                                                  *
30106750525000120               100981124540109199112JULIETA TEIXEIRA LIMA                                                 00000001766                    1006194805199000000000504950000000000000000    000000000000000000000000000000000000000000000000000000000000                                                                                                  *
30106750525000120               100981248940102201712REGINALDO VARANDAS COELHO                                             00000029080                    3004195305199000000000200000000000000000000    000000000000000000000000000000000000000000000000000000000000                                                                                                  *
30106750525000120               100984724500102201712PERICLES MAGALHAES MARINHO                                            00000029134                    1804195805199000000000500000000000000000000    000000000000000000000000000000000000000000000000000000000000                                                                                                  *
30106750525000120               100994302122111201312ANTONIO LISBOA POLICARPO BENTO                                        00000009736                    0506195605199000000000400000000000000000000    000000000000000000000000000000000000000000000000000000000000                                                                                                  *
30106750525000120               100996022850103201712HIPOLITO ALEXANDRE DE SOUZA NETO                                      00000019963                    3006195605199000000000500000000000000000000    000000000000000000000000000000000000000000000000000000000000                                                                                                  *
30106750525000120               100996457311702201112IVONE MONTEIRO SOARES                                                 00000017032                    2708195505199000000000495859000000000000000    000000000000000000000000000000000000000000000000000000000000                                                                                                  *
30106750525000120               101008622811601201312MARIA DE FATIMA BARROSO BEZERRA                                       00000017171                    2806194805199000000000200000000000000000000    000000000000000000000000000000000000000000000000000000000000                                                                                                  *
30106750525000120               101023866060102201712MYRZA LEITE FEITOSA                                                   00000002559                    0110194805199000000000333334000000000000000    000000000000000000000000000000000000000000000000000000000000                                                                                                  *
30106750525000120               101040399700102201712MARIA DO SOCORRO SOBREIRA CAVALCANTE                                  00000010206                    2201195105199000000000833334000000000000000    000000000000000000000000000000000000000000000000000000000000                                                                                                  *
30106750525000120               101040554610102201712SILVANA VASCONCELOS AGUIAR                                            00000002195                    2507195705199000000000500000000000000000000    000000000000000000000000000000000000000000000000000000000000                                                                                                  *
30106750525000120               101041340860102201712RAIMUNDO NONATO SILVA                                                 00000007908                    1303195605199000000000230000000000000000000    000000000000000000000000000000000000000000000000000000000000                                                                                                  *
30106750525000120               101041523000102201712FRANCISCA EDWIRGES PINHEIRO XIMENES                                   00000018562                    2108195705199000000000110000000000000000000    000000000000000000000000000000000000000000000000000000000000                                                                                                  *
30106750525000120               101041662470102201712MARIA DE FATIMA CORDEIRO DE SOUSA                                     00000003619                    1512195605199000000000333334000000000000000    000000000000000000000000000000000000000000000000000000000000                                                                                                  *
30106750525000120               101046381652303201512FRANCISCO ZUZA DE OLIVEIRA                                            00000026804                    1003194905199000000000400000000000000000000    000000000000000000000000000000000000000000000000000000000000                                                                                                  *
30106750525000120               101056698030108199312JOSE GAMALIEL TEIXEIRA NORONHA                                        00000001750                    0402194105199000000000349865000000000000000    000000000000000000000000000000000000000000000000000000000000                                                                                                  *
30106750525000120               101065008101908201612TEREZA NEUMA FARIAS RIBEIRO                                           00000028503                    2306195605199000000000400000000000000000000    000000000000000000000000000000000000000000000000000000000000                                                                                                  *
30106750525000120               101100651390103201712CARLOS FRANCISCO GONCALVES                                            00000019915                    3007195305199000000000250000000000000000000    000000000000000000000000000000000000000000000000000000000000                                                                                                  *
30106750525000120               101158102740102201712VIRGINIA MARIA LIMA BEZERRA                                           00000021769                    0404195605199000000000350000000000000000000    000000000000000000000000000000000000000000000000000000000000                                                                                                  *
30106750525000120               101158127300103201712JOAO LUIS MELO FILGUEIRAS                                             00000018537                    2312196305199000000000200000000000000000000    000000000000000000000000000000000000000000000000000000000000                                                                                                  *
30106750525000120               101158137290102201712JOVEANA CAMPOS DUARTE                                                 00000016152                    2008196205199000000000370000000000000000000    000000000000000000000000000000000000000000000000000000000000                                                                                                  *
30106750525000120               101158294550102201712SEBASTIANA ALVES DE OLIVEIRA                                          00000025020                    0309195005199000000000166666000000000000000    000000000000000000000000000000000000000000000000000000000000                                                                                                  *
30106750525000120               101158310500102201712FRANCISCA FATIMA MARTINS CARNEIRO                                     00000017864                    0710195205199000000000250000000000000000000  05000000000017576000000000000000000000000000000000000000000000                                                                                                  *
30106750525000120               101158360360102201712FRANCISCA IVANILDA SALES DOS SANTOS                                   00000029047                    1501194405199000000000500000000000000000000    000000000000000000000000000000000000000000000000000000000000                                                                                                  *
30106750525000120               101158512482201201312DEDICE DE ARAUJO E SILVA                                              00000024399                    2210193405199000000000000000000000000200000    000000000000000000000000000000000000000200000000000000000000                                                                                                  *
32106750525000120               101158512482201201312DEDICE DE ARAUJO E SILVA                                              L 16032017N                                                                                                                                                                                                                                 *
30106750525000120               101158536232308201612MARIA DE FATIMA AZEVEDO SOUZA                                         00000027526                    0303195305199000000000100000000000000000000    000000000000000000000000000000000000000000000000000000000000                                                                                                  *
30106750525000120               101158832550102201712PAULO NUNES QUEIROZ DA SILVA                                          00000009194                    2206195905199000000000200000000000000000000    000000000000000000000000000000000000000000000000000000000000                                                                                                  *
30106750525000120               101243462320102201712MARIA AMALIA DE ALMEIDA                                               00000028101                    1702195905199000000000400000000000000000000    000000000000000000000000000000000000000000000000000000000000                                                                                                  *
30106750525000120               102217404030102201712FRANCISCO EURIDITO DE ANDRADE LIMA                                    00000003731                    1509194905199000000000150000000000000000000    000000000000000000000000000000000000000000000000000000000000                                                                                                  *
30106750525000120               102217819750102201712JOSE HUGO VIANA MESQUITA                                              00000005515                    0905195105199000000000500000000000000000000    000000000000000000000000000000000000000000000000000000000000                                                                                                  *
30106750525000120               102218688680102201712ANTONIO ADERBAL BEZERRA                                               00000018520                    2207194105199000000000150000000000000000000    000000000000000000000000000000000000000000000000000000000000                                                                                                  *
30106750525000120               102219297860102201712MILENA SARAIVA LEAO VIEIRA                                            00000009564                    2108195005199000000000130000000000000000000    000000000000000000000000000000000000000000000000000000000000                                                                                                  *
30106750525000120               102220104760102201712EDVAR RODRIGUES XIMENES                                               00000003274                    0411194905199000000000416666000000000000000    000000000000000000000000000000000000000000000000000000000000                                                                                                  *
30106750525000120               102220373662002201512JOSE AIRTON DOS SANTOS FEITOSA                                        00000019371                    1506195705199000000000120000000000000000000    000000000000000000000000000000000000000000000000000000000000                                                                                                  *
30106750525000120               102220651572002201512JOSE EGBERTO FARIAS ALENCAR                                           00000026425                    3110194705199000000000933333000000000000000    000000000000000000000000000000000000000000000000000000000000                                                                                                  *
30106750525000120               102220819690102201712ANTONIO LAERTE BEZERRA DE MENEZES SOARES                              00000020671                    1302193905199000000000200000000000000000000    000000000000000000000000000000000000000000000000000000000000                                                                                                  *
30106750525000120               102220828760103200312FRANCISCO CATUNDA PINHO                                               00000003065                    1109194705199000000000321896000000000000000    000000000000000000000000000000000000000000000000000000000000                                                                                                  *
30106750525000120               102221258181702201112FRANCISCO AILTON ALVES                                                00000018916                    1108195005199000000000800000000000000000000    000000000000000000000000000000000000000000000000000000000000                                                                                                  *
30106750525000120               102221447230102201712MARLEY ABREU FERNANDES                                                00000017436                    2010194605199000000000100000000000000000000    000000000000000000000000000000000000000000000000000000000000                                                                                                  *
30106750525000120               102224574030102201712VICENTE DE ARAUJO BARRETO                                             00000003472                    2709193605199000000000666666000000000000000    000000000000000000000000000000000000000000000000000000000000                                                                                                  *
30106750525000120               102224645900111199312MARIA NILCE RODRIGUES                                                 00000001807                    2203194305199000000000142506000000000000000    000000000000000000000000000000000000000000000000000000000000                                                                                                  *
30106750525000120               102224763000102201712MARIA SOUSA DE LIMA                                                   00000020771                    0405195405199000000000500000000000000000000    000000000000000000000000000000000000000000000000000000000000                                                                                                  *
30106750525000120               102225744182002201712ANTONIO WILSON PLUTARCO NOGUEIRA                                      00000027733                    1306195205199000000000357090000000000000000    000000000000000000000000000000000000000000000000000000000000                                                                                                  *
30106750525000120               102225874980106199112JOSE ABREU RUFINO                                                     00000001745                    2410194405199000000000196037000000000000000    000000000000000000000000000000000000000000000000000000000000                                                                                                  *
30106750525000120               102253610162102201512FERNANDO BARBOSA PONTES                                               00000009824                    1901194705199000000000300000000000000000000    000000000000000000000000000000000000000000000000000000000000                                                                                                  *
30106750525000120               102253739950106199112RAIMUNDO NONATO AMARO MARTINS                                         00000001840                    1808194705199000000000221697000000000000000    000000000000000000000000000000000000000000000000000000000000                                                                                                  *
30106750525000120               102254285952401201712ANA MARIA OLIVEIRA SOUSA                                              00000028744                    3007194605199000000000500000000000000000000    000000000000000000000000000000000000000000000000000000000000                                                                                                  *
30106750525000120               102324666262603201512MARIA NEUMA COELHO                                                    00000007221                    0504194305199000000000300000000000000000000    000000000000000000000000000000000000000000000000000000000000                                                                                                  *
30106750525000120               102324691100102201712JORGE LIMA DE ALBUQUERQUE                                             00000023689                    3009194505199000000000333334000000000000000    000000000000000000000000000000000000000000000000000000000000                                                                                                  *
30106750525000120               102325222832603201512JOSE EURICO ARARIPE                                                   00000007629                    2502194605199000000000000000000000000028333    000000000000000000000000000000000000000028333000000000000000                                                                                                  *
32106750525000120               102325222832603201512JOSE EURICO ARARIPE                                                   L 16032017N                                                                                                                                                                                                                                 *
30106750525000120               102325382360102201712JOSE GERARDO AGUIAR NOGUEIRA                                          00000025135                    2903194605199000000000300000000000000000000    000000000000000000000000000000000000000000000000000000000000                                                                                                  *
30106750525000120               102325675700102199912HELENA GOMES DE SOUSA E BASTOS                                        00000002229                    0912194005199000000000282421000000000000000    000000000000000000000000000000000000000000000000000000000000                                                                                                  *
30106750525000120               102326144550102201712VALQUIRIA MOREIRA CARLOS                                              00000006441                    3012194605199000000000250000000000000000000    000000000000000000000000000000000000000000000000000000000000                                                                                                  *
30106750525000120               102326321940102201712MARLUCIA GONCALVES DE SOUSA NOCA                                      00000001286                    2809194505199000000000250000000000000000000    000000000000000000000000000000000000000000000000000000000000                                                                                                  *
30106750525000120               102327246170102201712VILMAR DA SILVA LIMA                                                  00000028900                    2909195105199000000000200000000000000000000    000000000000000000000000000000000000000000000000000000000000                                                                                                  *
30106750525000120               102362665240503200912SERGIO ELIAS DA COSTA                                                 00000015843                    0810195005199000000000190000000000000000000    000000000000000000000000000000000000000000000000000000000000                                                                                                  *
30106750525000120               102362961560111200412JOSE MILTON PORTELA DE AGUIAR                                         00000010170                    0512194505199000000000000000000000000291312    000000000000000000000000000000000000000291312000000000000000                                                                                                  *
32106750525000120               102362961560111200412JOSE MILTON PORTELA DE AGUIAR                                         L 16032017N                                                                                                                                                                                                                                 *
30106750525000120               102364486652204201412JOSE LUCIANO SARAIVA DIAS                                             00000025818                    2204195105199000000000583334000000000000000    000000000000000000000000000000000000000000000000000000000000                                                                                                  *
30106750525000120               102364890190102201712FRANCISCO OLAVO SILVA COLARES                                         00000029161                    2105194905199000000000300000000000000000000    000000000000000000000000000000000000000000000000000000000000                                                                                                  *
30106750525000120               102423933460102201712FRANCISCO ANANIAS PEREIRA                                             00000017792                    0505194405199000000000666666000000000000000    000000000000000000000000000000000000000000000000000000000000                                                                                                  *
30106750525000120               102431883120103201712FRANCISCO LUCIANO DOS SANTOS                                          00000007818                    0601195705199000000000400000000000000000000  05000000000030003000000000000000000000000000000000000000000000                                                                                                  *
30106750525000120               102464709490102201712MAIRTON FERREIRA ROSA                                                 00000017425                    2906194405199000000000180000000000000000000    000000000000000000000000000000000000000000000000000000000000                                                                                                  *
30106750525000120               102530020250102201712ANA MARIA ALBUQUERQUE PONTES                                          00000024663                    0708195405199000000000120000000000000000000    000000000000000000000000000000000000000000000000000000000000                                                                                                  *
30106750525000120               102530239950109199712JOSE MARIA FERNANDES                                                  00000001755                    1006194005199000000000093700000000000000000    000000000000000000000000000000000000000000000000000000000000                                                                                                  *
30106750525000120               102532796200102201712MARIA DAS GRACAS SOARES CARNEIRO                                      00000025645                    0502194905199000000000666666000000000000000    000000000000000000000000000000000000000000000000000000000000                                                                                                  *
30106750525000120               102560617900102201712JOSE RICARDO SILVEIRA                                                 00000017976                    0112194705199000000000316666000000000000000    000000000000000000000000000000000000000000000000000000000000                                                                                                  *
30106750525000120               102565741190102201712ADRIANA MARIA THOMASI                                                 00000020909                    1905195305199000000000400000000000000000000    000000000000000000000000000000000000000000000000000000000000                                                                                                  *
30106750525000120               102570340610106200012FRANCISCO FERNANDES DO CARMO                                          00000001697                    0104195305199000000000093700000000000000000    000000000000000000000000000000000000000000000000000000000000                                                                                                  *
30106750525000120               102609366580101199712WILLIAM BARROS                                                        00000002023                    1306195205199000000000188281000000000000000    000000000000000000000000000000000000000000000000000000000000                                                                                                  *
30106750525000120               102609370770101199712ANTONIO FERNANDES LIBERATO                                            00000002012                    2202194905199000000000214952000000000000000    000000000000000000000000000000000000000000000000000000000000                                                                                                  *
30106750525000120               102609528070103201712FRANCISCO GUEDES AGUIAR                                               00000029271                    0205195005199000000000250000000000000000000    000000000000000000000000000000000000000000000000000000000000                                                                                                  *
30106750525000120               102609655770503200912JOAO OLIVEIRA DA SILVA                                                00000016063                    2112194905199000000000100000000000000000000    000000000000000000000000000000000000000000000000000000000000                                                                                                  *
30106750525000120               102610632160102201712FRANCISCO DAS CHAGAS RODRIGUES CARNEIRO                               00000029089                    2208195205199000000000500000000000000000000    000000000000000000000000000000000000000000000000000000000000                                                                                                  *
30106750525000120               102610749780102201712RICARDO GARCIA DE LIMA                                                00000016326                    1303195405199000000000500000000000000000000    000000000000000000000000000000000000000000000000000000000000                                                                                                  *
30106750525000120               102610757371802201112PAULO DO AMARAL FIUZA                                                 00000015006                    2910194605199000000000170000000000000000000    000000000000000000000000000000000000000000000000000000000000                                                                                                  *
30106750525000120               102611421830103199512ANTONIO DIAS MARTINS                                                  00000003576                    0901194505199000000000275000000000000000000    000000000000000000000000000000000000000000000000000000000000                                                                                                  *
30106750525000120               102612155550101200312ANTONIA GONCALVES CARVALHO                                            00000009054                    2410195405199000000000121481000000000000000    000000000000000000000000000000000000000000000000000000000000                                                                                                  *
30106750525000120               102612573391702201112ANTONIO CARLOS PINHEIRO                                               00000021576                    3105195405199000000001841067000000000000000    000000000000000000000000000000000000000000000000000000000000                                                                                                  *
30106750525000120               102612700760104199712TEREZINHA PORTO SEQUEIRA                                              00000002066                    1410194805199000000000375843000000000000000    000000000000000000000000000000000000000000000000000000000000                                                                                                  *
30106750525000120               102652001020102201712JOSELITO SOUZA LACERDA                                                00000022019                    2211195705199000000000195000000000000000000    000000000000000000000000000000000000000000000000000000000000                                                                                                  *
30106750525000120               102705780450503200912CLODOALDO PINHEIRO DA SILVA                                           00000003773                    2709195305199000000000180000000000000000000    000000000000000000000000000000000000000000000000000000000000                                                                                                  *
30106750525000120               102751916290102201712RITA NOJOSA DIAS                                                      00000021654                    1009195305199000000000368334000000000000000    000000000000000000000000000000000000000000000000000000000000                                                                                                  *
30106750525000120               102752434670103201712RAIMUNDO NONATO MARQUES BARBOSA                                       00000021717                    1412195005199000000000250000000000000000000    000000000000000000000000000000000000000000000000000000000000                                                                                                  *
30106750525000120               102756620012303201712FRANCISCO ARNALDO SANTOS ALMEIDA                                      00000029204                    2708195005199000000000400000000000000000000    000000000000000000000000000000000000000000000000000000000000                                                                                                  *
30106750525000120               102756716550102201712ANGELA MARIA MARINHO PEREIRA                                          00000025217                    1610195405199000000000200000000000000000000    000000000000000000000000000000000000000000000000000000000000                                                                                                  *
30106750525000120               102758501420102199812IVANIZA ASSUNCAO GADELHA                                              00000006174                    2106195105199000000000130000000000000000000    000000000000000000000000000000000000000000000000000000000000                                                                                                  *
30106750525000120               102890955030102200312JESSE MARCELO FONTELES                                                00000002051                    2901194405199000000000290267000000000000000    000000000000000000000000000000000000000000000000000000000000                                                                                                  *
30106750525000120               102981941950102201712CARLOS ALBERTO FELISMINO GOMES                                        00000018270                    3009193605199000000000440000000000000000000    000000000000000000000000000000000000000000000000000000000000                                                                                                  *
30106750525000120               103157465370102199912FRANCISCO ZAMENHOF DE OLIVEIRA                                        00000002256                    2403194505199000000000094140000000000000000    000000000000000000000000000000000000000000000000000000000000                                                                                                  *
30106750525000120               103256853361808201512FRANCISCO DAS CHAGAS DE LIMA                                          00000027633                    0410195305199000000000150000000000000000000    000000000000000000000000000000000000000000000000000000000000                                                                                                  *
30106750525000120               103257358562002201712JOSE MAURICIO XIMENES MIRANDA                                         00000024192                    0502195305199000000000273000000000000000000    000000000000000000000000000000000000000000000000000000000000                                                                                                  *
30106750525000120               103260811160102201712FRANCISCO ANTONIO FONTENELE CAVALCANTE                                00000025550                    0802194905199000000000100000000000000000000    000000000000000000000000000000000000000000000000000000000000                                                                                                  *
30106750525000120               103788129010102201712FRANCISCO MENDONCA                                                    00000000680                    0308194205199000000000300000000000000000000    000000000000000000000000000000000000000000000000000000000000                                                                                                  *
30106750525000120               103873752920102201712VIDAL BENTO JUNIOR                                                    00000023595                    1512195405199000000000266666000000000000000    000000000000000000000000000000000000000000000000000000000000                                                                                                  *
30106750525000120               103920231020102201712FRANCISCO RUI FROTA AGUIAR                                            00000019323                    2509194805199000000000120000000000000000000    000000000000000000000000000000000000000000000000000000000000                                                                                                  *
30106750525000120               104000585850102201712CANDIDO AUGUSTO FERNANDES NETO                                        00000005544                    0208195205199000000000280000000000000000000    000000000000000000000000000000000000000000000000000000000000                                                                                                  *
30106750525000120               104085972050102201712ROSANA GARJULLI SALES COSTA                                           00000003162                    0503195405199000000000400000000000000000000    000000000000000000000000000000000000000000000000000000000000                                                                                                  *
30106750525000120               104249243200102201712FRANCISCO ARIAIS LIMA                                                 00000006519                    1309194705199000000000200000000000000000000    000000000000000000000000000000000000000000000000000000000000                                                                                                  *
30106750525000120               104281783482104201512JOSE FAUSTO DA SILVA                                                  00000027160                    3003194805199000000000833334000000000000000    000000000000000000000000000000000000000000000000000000000000                                                                                                  *
30106750525000120               104330525350102201712KERGINALDO GOMES DE LUCENA                                            00000018697                    2708194705199000000000220000000000000000000    000000000000000000000000000000000000000000000000000000000000                                                                                                  *
30106750525000120               104821330472401201712RAIMUNDO VIEIRA DA SILVA                                              00000028750                    1803195105199000000000200000000000000000000    000000000000000000000000000000000000000000000000000000000000                                                                                                  *
30106750525000120               104821784740106199112JOSE DE MENEZES MARQUES                                               00000001756                    2503195005199000000000197513000000000000000    000000000000000000000000000000000000000000000000000000000000                                                                                                  *
30106750525000120               104822777230102201712LUCIANO JOSE OLIVEIRA DE SOUZA                                        00000028287                    3003195605199000000000833334000000000000000    000000000000000000000000000000000000000000000000000000000000                                                                                                  *
30106750525000120               104822888730102201712CICERO PEREIRA DE QUEIROZ                                             00000023043                    0907193905199000000000100000000000000000000    000000000000000000000000000000000000000000000000000000000000                                                                                                  *
30106750525000120               104823085050102201712RAIMUNDO ALDEMIR ARAUJO VIEIRA                                        00000028827                    1009194905199000000000100000000000000000000    000000000000000000000000000000000000000000000000000000000000                                                                                                  *
30106750525000120               104824352800103201712JOSE CLODUALDO DE SOUSA                                               00000025831                    0705195705199000000000200000000000000000000    000000000000000000000000000000000000000000000000000000000000                                                                                                  *
30106750525000120               105482501860106199112FRANCISCO CARLOS DA SILVEIRA ALENCAR                                  00000001690                    0203195305199000000000247361000000000000000    000000000000000000000000000000000000000000000000000000000000                                                                                                  *
30106750525000120               105482726780102201712MARIA NISA BARBOSA PIRES                                              00000002615                    2103195305199000000000180000000000000000000    000000000000000000000000000000000000000000000000000000000000                                                                                                  *
30106750525000120               105482727320503200912ANTONIO CARLOS MAGALHAES                                              00000018729                    2706195105199000000000245000000000000000000    000000000000000000000000000000000000000000000000000000000000                                                                                                  *
30106750525000120               105512595630103200312ANTONIO VILMAR RODRIGUES SILVEIRA                                     00000002096                    1705195505199000000000293164000000000000000    000000000000000000000000000000000000000000000000000000000000                                                                                                  *
30106750525000120               105558808901301201512FRANCISCO CHAGAS FILHO                                                00000021185                    3003195405199000000000400000000000000000000    000000000000000000000000000000000000000000000000000000000000                                                                                                  *
30106750525000120               105558856120102201712JOSE WELLINGTON DO NASCIMENTO                                         00000018459                    1610195305199000000000100000000000000000000    000000000000000000000000000000000000000000000000000000000000                                                                                                  *
30106750525000120               106017914410102201712ELZA FILGUEIRAS FACO                                                  00000022002                    1904195105199000000000200000000000000000000    000000000000000000000000000000000000000000000000000000000000                                                                                                  *
30106750525000120               106023852850102201712FRANCISCO RAIMUNDO COSTA MOREIRA                                      00000021918                    0612195205199000000000175000000000000000000    000000000000000000000000000000000000000000000000000000000000                                                                                                  *
30106750525000120               106025007340102201712INES CABRAL DA COSTA                                                  00000028087                    2111194905199000000000166666000000000000000    000000000000000000000000000000000000000000000000000000000000                                                                                                  *
30106750525000120               106025107560503200912CARLOS ALBERTO RODRIGUES DE FARIAS                                    00000015775                    0506195405199000000000165000000000000000000    000000000000000000000000000000000000000000000000000000000000                                                                                                  *
30106750525000120               106025741262102201512RAIMUNDO JOSE SOUSA VASCONCELOS                                       00000019456                    2603195005199000000000780000000000000000000    000000000000000000000000000000000000000000000000000000000000                                                                                                  *
30106750525000120               106066661490107200512ARLINDO AMARO SANTOS CASADO                                           00000009943                    1509195505199000000000400000000000000000000    000000000000000000000000000000000000000000000000000000000000                                                                                                  *
30106750525000120               106134745430102200712FRANCISCO RICARDO PARENTE MACEDO                                      00000016442                    0112195305199000000000368334000000000000000    000000000000000000000000000000000000000000000000000000000000                                                                                                  *
30106750525000120               106135053090102201712NORMA MARIA BARROSO                                                   00000025669                    1612195505199000000000791666000000000000000    000000000000000000000000000000000000000000000000000000000000                                                                                                  *
30106750525000120               106140499190111199412ORLANDINA FERREIRA ROCHA                                              00000001826                    0105195605199000000000217046000000000000000    000000000000000000000000000000000000000000000000000000000000                                                                                                  *
30106750525000120               106234303010102199912JOSE MILTON RODRIGUES                                                 00000002140                    1510195505199000000000151933000000000000000    000000000000000000000000000000000000000000000000000000000000                                                                                                  *
30106750525000120               106234807832002201512JOSE TRAJANO PEREIRA                                                  00000026534                    0607196005199000000000110000000000000000000    000000000000000000000000000000000000000000000000000000000000                                                                                                  *
30106750525000120               106287887860102201712EUDASIO FERREIRA LIMA                                                 00000002797                    0608195105199000000000166666000000000000000    000000000000000000000000000000000000000000000000000000000000                                                                                                  *
30106750525000120               106293297502401201712ANA MARIA MOREIRA TEIXEIRA                                            00000028732                    2303195505199000000000585000000000000000000    000000000000000000000000000000000000000000000000000000000000                                                                                                  *
30106750525000120               106393348700106199112TARCISIO DOS SANTOS CARMO                                             00000001862                    0509194205199000000000426396000000000000000    000000000000000000000000000000000000000000000000000000000000                                                                                                  *
30106750525000120               106393374031602201112FRANCISCO JOSE TABOSA SERAFIM                                         00000021532                    2405195305199000000000700000000000000000000    000000000000000000000000000000000000000000000000000000000000                                                                                                  *
30106750525000120               106394139831404200812FREDERICO VIANA PEIXOTO                                               00000018805                    3005195805199000000000200000000000000000000    000000000000000000000000000000000000000000000000000000000000                                                                                                  *
30106750525000120               106423007440102201712MARIA DE FATIMA TABOSA                                                00000027710                    2507195305199000000000250000000000000000000    000000000000000000000000000000000000000000000000000000000000                                                                                                  *
30106750525000120               106423479960103201712JOAO FEIJO DE LIMA FILHO                                              00000019774                    2907195505199000000000200000000000000000000    000000000000000000000000000000000000000000000000000000000000                                                                                                  *
30106750525000120               106423494920102201712ANTONIO ALMEIDA FERREIRA                                              00000024983                    3107195205199000000000283334000000000000000    000000000000000000000000000000000000000000000000000000000000                                                                                                  *
30106750525000120               106423543210111199312FRANCISCA BARBOSA PINHEIRO                                            00000001681                    1501195305199000000000150532000000000000000    000000000000000000000000000000000000000000000000000000000000                                                                                                  *
30106750525000120               106457628030102201712JOAO CARLOS RAMOS                                                     00000028780                    2406195905199000000000170000000000000000000    000000000000000000000000000000000000000000000000000000000000                                                                                                  *
30106750525000120               106464562500102201712JOAO RODRIGUES DO NASCIMENTO                                          00000018536                    0804195305199000000000140000000000000000000    000000000000000000000000000000000000000000000000000000000000                                                                                                  *
30106750525000120               106501143420102201712MARIA DO SOCORRO RODRIGUES ARAUJO                                     00000021870                    0608195805199000000000400000000000000000000    000000000000000000000000000000000000000000000000000000000000                                                                                                  *
30106750525000120               106501268200102201712GERARDO ANESIO BARBOSA                                                00000020435                    3103195505199000000000166666000000000000000    000000000000000000000000000000000000000000000000000000000000                                                                                                  *
30106750525000120               106517452141911201512ANTONIO CARLOS SOARES                                                 00000027839                    0605195405199000000000900000000000000000000    000000000000000000000000000000000000000000000000000000000000                                                                                                  *
30106750525000120               106564135970102201712ELISABETH DREHER                                                      00000022730                    3003195705199000000000200000000000000000000    000000000000000000000000000000000000000000000000000000000000                                                                                                  *
30106750525000120               106577721671405201512FRANCISCO CARLOS QUENTAL DE NOROES                                    00000027301                    1402195705199000000000100000000000000000000    000000000000000000000000000000000000000000000000000000000000                                                                                                  *
30106750525000120               106578611860102201712MARIA DO EGITO DE ALMEIDA SALES                                       00000007602                    2809195305199000000000666666000000000000000    000000000000000000000000000000000000000000000000000000000000                                                                                                  *
30106750525000120               106587502130107199312MARIA IRANEIDE OLIVEIRA VERISSIMO                                     00000001802                    1504194905199000000000099128000000000000000    000000000000000000000000000000000000000000000000000000000000                                                                                                  *
30106750525000120               106589399600103200312MARIA DE FATIMA CAVALCANTE DUARTE                                     00000002453                    0212195605199000000000166414000000000000000    000000000000000000000000000000000000000000000000000000000000                                                                                                  *
30106750525000120               106609559781008201212EDNIR DANTAS SILVEIRA                                                 00000021320                    0409195305199000000000350000000000000000000    000000000000000000000000000000000000000000000000000000000000                                                                                                  *
30106750525000120               106609623890102201712JOSE JOCELIO CARNEIRO                                                 00000028909                    2604195705199000000000180000000000000000000    000000000000000000000000000000000000000000000000000000000000                                                                                                  *
30106750525000120               106622269491701201712JOSE AMARO BOARDMAN DE OLIVEIRA                                       00000028707                    1003194705199000000000273000000000000000000    000000000000000000000000000000000000000000000000000000000000                                                                                                  *
30106750525000120               106657830320102201712MARIA LUCIMAR PINHEIRO RODRIGUES                                      00000029120                    1510194805199000000000450000000000000000000    000000000000000000000000000000000000000000000000000000000000                                                                                                  *
30106750525000120               106657830750102201712RICARDO PEIXOTO RODRIGUES                                             00000009144                    2508195905199000000000180000000000000000000    000000000000000000000000000000000000000000000000000000000000                                                                                                  *
30106750525000120               106670348510102201712EMANUEL COELHO BARCELOS FONTENELE                                     00000023201                    2501195605199000000000233334000000000000000    000000000000000000000000000000000000000000000000000000000000                                                                                                  *
30106750525000120               106696299760103199912MARIA JANICE OLIVEIRA DA GUIA                                         00000002092                    3003195805199000000000109831000000000000000    000000000000000000000000000000000000000000000000000000000000                                                                                                  *
30106750525000120               106715122070102201712JOSE IVANIR FARIAS                                                    00000029065                    2708195505199000000000000000000000000016667    000000000000000000000000000000000000000016667000000000000000                                                                                                  *
32106750525000120               106715122070102201712JOSE IVANIR FARIAS                                                    L 16032017N                                                                                                                                                                                                                                 *
30106750525000120               106723908300104200012MARIA EURIDICE OLIVEIRA                                               00000001796                    3007194105199000000000156900000000000000000    000000000000000000000000000000000000000000000000000000000000                                                                                                  *
30106750525000120               106723922210102201712NACY MARIA FERNANDES BRAGA                                            00000002749                    2805195505199000000000500000000000000000000    000000000000000000000000000000000000000000000000000000000000                                                                                                  *
30106750525000120               106738505920102201712JOAO BATISTA BASTOS LIRA                                              00000026647                    2002196205199000000000250000000000000000000    000000000000000000000000000000000000000000000000000000000000                                                                                                  *
30106750525000120               106749702302502201512THERESA CHRISTINA CORDEIRO BENEVIDES DE MAGALHAES                     00000021641                    1612195505199000000000495859000000000000000    000000000000000000000000000000000000000000000000000000000000                                                                                                  *
30106750525000120               106749844280106199112JOSE OSSIAN LIMA                                                      00000001759                    2111195105199000000000300182000000000000000    000000000000000000000000000000000000000000000000000000000000                                                                                                  *
30106750525000120               106750180370102201712FERNANDO ABREU BARROSO                                                00000003459                    2502195605199000000000250000000000000000000    000000000000000000000000000000000000000000000000000000000000                                                                                                  *
30106750525000120               106769012790102201712ANTONIO MARTINS DA COSTA                                              00000021069                    2004194705199000000000666666000000000000000    000000000000000000000000000000000000000000000000000000000000                                                                                                  *
30106750525000120               106769651880806200912MARLEIDE CORREIA LIMA                                                 00000020351                    0408195605199000000000500000000000000000000    000000000000000000000000000000000000000000000000000000000000                                                                                                  *
30106750525000120               106787014200102201712ABIDIAS DE MORAES PEREIRA                                             00000015806                    3107193605199000000000250000000000000000000    000000000000000000000000000000000000000000000000000000000000                                                                                                  *
30106750525000120               106787063922401201712JOSE ORLANDO BARROS                                                   00000028716                    2507195405199000000000120000000000000000000    000000000000000000000000000000000000000000000000000000000000                                                                                                  *
30106750525000120               106787138360102201712VICENCA ALMEIDA MUNIZ DA SILVA                                        00000017503                    0210195005199000000000166666000000000000000    000000000000000000000000000000000000000000000000000000000000                                                                                                  *
30106750525000120               106828613480102201712ANTONIO LUIS CARACAS                                                  00000022961                    2307195905199000000000150000000000000000000    000000000000000000000000000000000000000000000000000000000000                                                                                                  *
30106750525000120               106829048960102201712JOSE WELLINGTON RODRIGUES                                             00000016951                    1305195805199000000000200000000000000000000    000000000000000000000000000000000000000000000000000000000000                                                                                                  *
30106750525000120               106829420971502201612MARIA DE FATIMA DE OLIVEIRA                                           00000026555                    3009195205199000000000110000000000000000000    000000000000000000000000000000000000000000000000000000000000                                                                                                  *
30106750525000120               106829581712002201512MARIA LUCILEDA RABELO DA SILVA                                        00000026431                    2301195805199000000000100000000000000000000    000000000000000000000000000000000000000000000000000000000000                                                                                                  *
30106750525000120               106829640070103201712LUIZA DAS GRACAS RODRIGUES DOS SANTOS                                 00000007321                    2907194705199000000000200000000000000000000    000000000000000000000000000000000000000000000000000000000000                                                                                                  *
30106750525000120               106873718960102201712LIDUINA LIMA BRITO COELHO                                             00000024524                    2509195705199000000000100000000000000000000    000000000000000000000000000000000000000000000000000000000000                                                                                                  *
30106750525000120               106953805560103201712JOSE ALVERNE LACERDA                                                  00000002915                    0407195705199000000000180000000000000000000    000000000000000000000000000000000000000000000000000000000000                                                                                                  *
30106750525000120               106954469132009201112JOSE NEUDO DA SILVA                                                   00000020545                    0806195505199000000000350000000000000000000    000000000000000000000000000000000000000000000000000000000000                                                                                                  *
30106750525000120               106963625862103201612ANGELA MARIA DO CARMO MACHADO                                         00000021503                    0909195305199000000000595150000000000000000    000000000000000000000000000000000000000000000000000000000000                                                                                                  *
30106750525000120               106964015490102201712JOSE CIRO FILHO                                                       00000019397                    2509194805199000000000333334000000000000000    000000000000000000000000000000000000000000000000000000000000                                                                                                  *
30106750525000120               106964027580106199112ANTONIO NOGUEIRA MACIEL                                               00000001637                    1302195505199000000000145770000000000000000    000000000000000000000000000000000000000000000000000000000000                                                                                                  *
30106750525000120               107069733452002201512JOSE RIBAMAR DOS SANTOS                                               00000026440                    1603195505199000000000183334000000000000000    000000000000000000000000000000000000000000000000000000000000                                                                                                  *
30106750525000120               107184373542703201512FRANCISCA DE FATIMA SILVA DE SOUSA                                    00000026983                    0204195305199000000000500000000000000000000    000000000000000000000000000000000000000000000000000000000000                                                                                                  *
30106750525000120               107184375160102201712FERNANDA ANTONIA DE XEREZ PAULINO                                     00000002751                    2601195705199000000000150000000000000000000    000000000000000000000000000000000000000000000000000000000000                                                                                                  *
30106750525000120               107184529141811201612JOSE TARCISIO MESQUITA MARTINS                                        00000028636                    2007195705199000000000210000000000000000000    000000000000000000000000000000000000000000000000000000000000                                                                                                  *
30106750525000120               107184848241810201112ANTONIA DE FATIMA GUEDES GONDIM                                       00000022625                    1306195505199000000000300000000000000000000    000000000000000000000000000000000000000000000000000000000000                                                                                                  *
30106750525000120               107184946250503200912FRANCISCA BATISTA RIBEIRO                                             00000015783                    0407195705199000000000135000000000000000000    000000000000000000000000000000000000000000000000000000000000                                                                                                  *
30106750525000120               107185045310102201712ELIONILDO DAMASCENO FERREIRA                                          00000022285                    2310195005199000000000100000000000000000000    000000000000000000000000000000000000000000000000000000000000                                                                                                  *
30106750525000120               107185329180102201712GLAUCIA MARIA SANTIAGO DA SILVEIRA                                    00000018668                    0911195505199000000000200000000000000000000    000000000000000000000000000000000000000000000000000000000000                                                                                                  *
30106750525000120               107185977421807201312FRANCISCA EDGLA MACEDO MARTINS                                        00000025191                    0410195805199000000000150000000000000000000    000000000000000000000000000000000000000000000000000000000000                                                                                                  *
30106750525000120               107295111780102201712FRANCISCO JOSE LIMA DA COSTA                                          00000025873                    2008195205199000000000166666000000000000000    000000000000000000000000000000000000000000000000000000000000                                                                                                  *
30106750525000120               107295227300102201712EVANIO BATISTA DE LIMA                                                00000009641                    1011195905199000000000500000000000000000000    000000000000000000000000000000000000000000000000000000000000                                                                                                  *
30106750525000120               107295259180806201612MARIA CLEONICE DO NASCIMENTO BEZERRA                                  00000028331                    0709195705199000000000150000000000000000000    000000000000000000000000000000000000000000000000000000000000                                                                                                  *
30106750525000120               107373477720102201712CARLOS ALBERTO VIEIRA DE ALENCAR                                      00000022276                    2711195105199000000000416666000000000000000    000000000000000000000000000000000000000000000000000000000000                                                                                                  *
30106750525000120               107376120260503200912LUCIENE BARBOSA NOBRE                                                 00000015788                    0105195705199000000000200000000000000000000    000000000000000000000000000000000000000000000000000000000000                                                                                                  *
30106750525000120               107376188731802201712MARTA PAULA SOARES                                                    00000022274                    0901195605199000000000093700000000000000000    000000000000000000000000000000000000000000000000000000000000                                                                                                  *
30106750525000120               107376962030102201712FABIANO ORCANO MOREIRA                                                00000022464                    0307195405199000000000333334000000000000000    000000000000000000000000000000000000000000000000000000000000                                                                                                  *
30106750525000120               107376972340102201712ANTONIO FABIO BRAGA MARCELINO                                         00000027548                    0305195705199000000000300000000000000000000    000000000000000000000000000000000000000000000000000000000000                                                                                                  *
30106750525000120               107377077950103201712GERALDA MARTINS CHAVES ANTENOR                                        00000006107                    3107195605199000000000240000000000000000000    000000000000000000000000000000000000000000000000000000000000                                                                                                  *
30106750525000120               107377128532202201712JOSE TEIXEIRA DA SILVA                                                00000021314                    0605195605199000000000400000000000000000000    000000000000000000000000000000000000000000000000000000000000                                                                                                  *
30106750525000120               107384350631405201412MARIA FRANCISCA VIEIRA COUTINHO                                       00000025906                    0705195405199000000000130000000000000000000    000000000000000000000000000000000000000000000000000000000000                                                                                                  *
30106750525000120               107446719460106199112JOSE EVERTON RODRIGUES DA COSTA                                       00000001748                    0411195705199000000000121810000000000000000    000000000000000000000000000000000000000000000000000000000000                                                                                                  *
30106750525000120               107460008520102201712MARIA DE FATIMA BERTOLDO                                              00000028808                    0204195505199000000000500000000000000000000    000000000000000000000000000000000000000000000000000000000000                                                                                                  *
30106750525000120               107472260640102201712RAIMUNDO ALIONEUDO NOGUEIRA                                           00000023168                    1204195805199000000000120000000000000000000    000000000000000000000000000000000000000000000000000000000000                                                                                                  *
30106750525000120               107503557910102201712NADJA REGINA DE MAGALHAES BENEVIDES                                   00000024395                    0102196105199000000000333334000000000000000    000000000000000000000000000000000000000000000000000000000000                                                                                                  *
30106750525000120               107504495400102201712LUIZ FILGUEIRA NETO                                                   00000003944                    0405195305199000000000180000000000000000000    000000000000000000000000000000000000000000000000000000000000                                                                                                  *
30106750525000120               107504567760102201712ANTONIO PAULO MELO SILVA                                              00000023020                    2312195605199000000000170000000000000000000    000000000000000000000000000000000000000000000000000000000000                                                                                                  *
30106750525000120               107504697890102201712JOSE MARIA CAMILO                                                     00000009700                    2806195805199000000000100000000000000000000    000000000000000000000000000000000000000000000000000000000000                                                                                                  *
30106750525000120               107504966970102201712GENESIO TARGINO DE CASTRO                                             00000016224                    1109195005199000000000200000000000000000000    000000000000000000000000000000000000000000000000000000000000                                                                                                  *
