00                                                   1106750525000120ASSEMBLEIA LEGISLATIVA DO CE  ISAURA P D NOGUEIRA AV DESEMBAGADOR MOREIRA 2807                      DIONISIO TORRES     60170002FORTALEZA           CE008532773746ANDRESAPIRANGA@HOTMAIL.COM                                  2017031151         1               106750525000120                  *
10106750525000120000000000000000000000000000000000000ASSEMBLEIA LEGISLATIVA DO CEARA         AV DESEMBARGADOR MOREIRA 2807                     DIONISIO TORRES     60170002FORTALEZA           CE008532773732N7511600N100158200002402     000000000000000000000000000000000000000000000000000000000000                000000000000000000000000000000000000000000000    *
30106750525000120               100165655300104199912MARIA HELENA BRASIL NOGUEIRA                                          00000004297                    0312193305199000000000097185000000000000000    000000000000000000000000000000000000000000000000000000000000                                                                                                  *
30106750525000120               100277769370106199112JOSE JUCA GERMANO                                                     00000001752                    1309192105199000000000093700000000000000000    000000000000000000000000000000000000000000000000000000000000                                                                                                  *
30106750525000120               100435243430104199712TEREZINHA DE FREITAS BAIMA                                            00000002080                    2403193705199000000000349865000000000000000    000000000000000000000000000000000000000000000000000000000000                                                                                                  *
30106750525000120               100817928560101200312VERA LUCIA DE OLIVEIRA GOMES                                          00000009052                    2706194605199000000000423238000000000000000    000000000000000000000000000000000000000000000000000000000000                                                                                                  *
30106750525000120               100861702170107199412IARACI DE ALBUQUERQUE GALLOTE                                         00000001720                    1206195105199000000000117125000000000000000    000000000000000000000000000000000000000000000000000000000000                                                                                                  *
30106750525000120               100875400930101200312ALEXANDRE HERCULANO DE CARVALHO                                       00000009058                    1408195505199000000000222832000000000000000    000000000000000000000000000000000000000000000000000000000000                                                                                                  *
30106750525000120               100981124540109199112JULIETA TEIXEIRA LIMA                                                 00000001766                    1006194805199000000000504950000000000000000    000000000000000000000000000000000000000000000000000000000000                                                                                                  *
30106750525000120               101056698030108199312JOSE GAMALIEL TEIXEIRA NORONHA                                        00000001750                    0402194105199000000000349865000000000000000    000000000000000000000000000000000000000000000000000000000000                                                                                                  *
30106750525000120               102224645900111199312MARIA NILCE RODRIGUES                                                 00000001807                    2203194305199000000000142506000000000000000    000000000000000000000000000000000000000000000000000000000000                                                                                                  *
30106750525000120               102225874980106199112JOSE ABREU RUFINO                                                     00000001745                    2410194405199000000000196037000000000000000    000000000000000000000000000000000000000000000000000000000000                                                                                                  *
30106750525000120               102253739950106199112RAIMUNDO NONATO AMARO MARTINS                                         00000001840                    1808194705199000000000221697000000000000000    000000000000000000000000000000000000000000000000000000000000                                                                                                  *
30106750525000120               102325675700102199912HELENA GOMES DE SOUSA E BASTOS                                        00000002229                    0912194005199000000000282421000000000000000    000000000000000000000000000000000000000000000000000000000000                                                                                                  *
30106750525000120               102530239950109199712JOSE MARIA FERNANDES                                                  00000001755                    1006194005199000000000093700000000000000000    000000000000000000000000000000000000000000000000000000000000                                                                                                  *
30106750525000120               102570340610106200012FRANCISCO FERNANDES DO CARMO                                          00000001697                    0104195305199000000000093700000000000000000    000000000000000000000000000000000000000000000000000000000000                                                                                                  *
30106750525000120               102609366580101199712WILLIAM BARROS                                                        00000002023                    1306195205199000000000188281000000000000000    000000000000000000000000000000000000000000000000000000000000                                                                                                  *
30106750525000120               102609370770101199712ANTONIO FERNANDES LIBERATO                                            00000002012                    2202194905199000000000214952000000000000000    000000000000000000000000000000000000000000000000000000000000                                                                                                  *
30106750525000120               102612155550101200312ANTONIA GONCALVES CARVALHO                                            00000009054                    2410195405199000000000121481000000000000000    000000000000000000000000000000000000000000000000000000000000                                                                                                  *
30106750525000120               102612700760104199712TEREZINHA PORTO SEQUEIRA                                              00000002066                    1410194805199000000000375843000000000000000    000000000000000000000000000000000000000000000000000000000000                                                                                                  *
30106750525000120               102890955030102200312JESSE MARCELO FONTELES                                                00000002051                    2901194405199000000000290267000000000000000    000000000000000000000000000000000000000000000000000000000000                                                                                                  *
30106750525000120               103157465370102199912FRANCISCO ZAMENHOF DE OLIVEIRA                                        00000002256                    2403194505199000000000094140000000000000000    000000000000000000000000000000000000000000000000000000000000                                                                                                  *
30106750525000120               104821784740106199112JOSE DE MENEZES MARQUES                                               00000001756                    2503195005199000000000197513000000000000000    000000000000000000000000000000000000000000000000000000000000                                                                                                  *
30106750525000120               105482501860106199112FRANCISCO CARLOS DA SILVEIRA ALENCAR                                  00000001690                    0203195305199000000000247361000000000000000    000000000000000000000000000000000000000000000000000000000000                                                                                                  *
30106750525000120               105512595630103200312ANTONIO VILMAR RODRIGUES SILVEIRA                                     00000002096                    1705195505199000000000293164000000000000000    000000000000000000000000000000000000000000000000000000000000                                                                                                  *
30106750525000120               106140499190111199412ORLANDINA FERREIRA ROCHA                                              00000001826                    0105195605199000000000217046000000000000000    000000000000000000000000000000000000000000000000000000000000                                                                                                  *
30106750525000120               106234303010102199912JOSE MILTON RODRIGUES                                                 00000002140                    1510195505199000000000151933000000000000000    000000000000000000000000000000000000000000000000000000000000                                                                                                  *
30106750525000120               106393348700106199112TARCISIO DOS SANTOS CARMO                                             00000001862                    0509194205199000000000426396000000000000000    000000000000000000000000000000000000000000000000000000000000                                                                                                  *
30106750525000120               106423543210111199312FRANCISCA BARBOSA PINHEIRO                                            00000001681                    1501195305199000000000150532000000000000000    000000000000000000000000000000000000000000000000000000000000                                                                                                  *
30106750525000120               106587502130107199312MARIA IRANEIDE OLIVEIRA VERISSIMO                                     00000001802                    1504194905199000000000099128000000000000000    000000000000000000000000000000000000000000000000000000000000                                                                                                  *
30106750525000120               106696299760103199912MARIA JANICE OLIVEIRA DA GUIA                                         00000002092                    3003195805199000000000109831000000000000000    000000000000000000000000000000000000000000000000000000000000                                                                                                  *
30106750525000120               106723908300104200012MARIA EURIDICE OLIVEIRA                                               00000001796                    3007194105199000000000156900000000000000000    000000000000000000000000000000000000000000000000000000000000                                                                                                  *
30106750525000120               106749844280106199112JOSE OSSIAN LIMA                                                      00000001759                    2111195105199000000000300182000000000000000    000000000000000000000000000000000000000000000000000000000000                                                                                                  *
30106750525000120               106964027580106199112ANTONIO NOGUEIRA MACIEL                                               00000001637                    1302195505199000000000145770000000000000000    000000000000000000000000000000000000000000000000000000000000                                                                                                  *
30106750525000120               107446719460106199112JOSE EVERTON RODRIGUES DA COSTA                                       00000001748                    0411195705199000000000121810000000000000000    000000000000000000000000000000000000000000000000000000000000                                                                                                  *
30106750525000120               107653387740101200312EDNA MARIA MELO DE PONTES                                             00000001667                    2502195805199000000000254174000000000000000    000000000000000000000000000000000000000000000000000000000000                                                                                                  *
30106750525000120               107656565040105200312JOSE HERMINIO DE LIMA JUNIOR                                          00000002307                    0806196205199000000000121810000000000000000    000000000000000000000000000000000000000000000000000000000000                                                                                                  *
30106750525000120               107858758050107200312CARLUCIO INACIO DE OLIVEIRA                                           00000009093                    1201195005199000000000252298000000000000000    000000000000000000000000000000000000000000000000000000000000                                                                                                  *
30106750525000120               107916817820111199312TEREZINHA RODRIGUES SALES                                             00000001863                    1708195605199000000000143901000000000000000    000000000000000000000000000000000000000000000000000000000000                                                                                                  *
30106750525000120               107917258440103200312HAMILZIA DE SOUZA BORGES E MARQUES LEAL                               00000002200                    1103196105199000000000233244000000000000000    000000000000000000000000000000000000000000000000000000000000                                                                                                  *
30106750525000120               107921036340106199812FRANCISCO HERLANO GOMES MOURA                                         00000002126                    1304195805199000000000141081000000000000000    000000000000000000000000000000000000000000000000000000000000                                                                                                  *
30106750525000120               108058277970109199312FRANCISCA CIPRIANO SOUZA RAMOS                                        00000001682                    2306195805199000000000121810000000000000000    000000000000000000000000000000000000000000000000000000000000                                                                                                  *
30106750525000120               108232958820106199312EDMILSON RODRIGUES DE CARVALHO                                        00000001666                    2608195505199000000000186009000000000000000    000000000000000000000000000000000000000000000000000000000000                                                                                                  *
30106750525000120               108233598720106199112MARIA CLARA DE FREITAS GUIMARAES                                      00000001785                    0311195905199000000000520823000000000000000    000000000000000000000000000000000000000000000000000000000000                                                                                                  *
30106750525000120               108402146230107199112MARCIA WALESKA DE MELO FROTA                                          00000001812                    0709195705199000000000093700000000000000000    000000000000000000000000000000000000000000000000000000000000                                                                                                  *
30106750525000120               108971695460109199312IRENE AURENI DE ALBUQUERQUE                                           00000001722                    2308195405199000000000130541000000000000000    000000000000000000000000000000000000000000000000000000000000                                                                                                  *
30106750525000120               108972158310109199312MARIA DO SOCORRO LOURENCO FONTES                                      00000001792                    0605194805199000000000130541000000000000000    000000000000000000000000000000000000000000000000000000000000                                                                                                  *
30106750525000120               120196632890104199412MARIA GOMES TIMBO                                                     00000001798                    0507196505199000000000423238000000000000000    000000000000000000000000000000000000000000000000000000000000                                                                                                  *
30106750525000120               120250388700105199412FRANCISCA MARTHA ROCHA                                                00000001684                    0506196005199000000000183400000000000000000    000000000000000000000000000000000000000000000000000000000000                                                                                                  *
30106750525000120               120250862710102199812MARIA DE FATIMA SOUSA PINHEIRO                                        00000002123                    0111196205199000000000385696000000000000000    000000000000000000000000000000000000000000000000000000000000                                                                                                  *
30106750525000120               120313033430102199712TELMA REJANE ALVES MOREIRA                                            00000002222                    2107196505199000000000313583000000000000000    000000000000000000000000000000000000000000000000000000000000                                                                                                  *
30106750525000120               120704167570110199412PATRICIA MONICA DE ALBUQUERQUE PINTO                                  00000001828                    2211196105199000000000360871000000000000000    000000000000000000000000000000000000000000000000000000000000                                                                                                  *
30106750525000120               120800382830105199712MARCIA HELENA PONTES                                                  00000002177                    2004195205199000000000331222000000000000000    000000000000000000000000000000000000000000000000000000000000                                                                                                  *
30106750525000120               121276181670105199712ABILIO GURGEL NOGUEIRA                                                00000002060                    2412196305199000000000520823000000000000000    000000000000000000000000000000000000000000000000000000000000                                                                                                  *
30106750525000120               121302183440110199912MARIA DO SOCORRO BARBOSA DA COSTA                                     00000002205                    2207196005199000000000437015000000000000000    000000000000000000000000000000000000000000000000000000000000                                                                                                  *
30106750525000120               121535232910108199512VANIA MARIA MOTA DE SOUSA                                             00000001978                    1207196305199000000000140028000000000000000    000000000000000000000000000000000000000000000000000000000000                                                                                                  *
30106750525000120               121537123960110199812LUCIANO GONCALVES FERREIRA                                            00000002132                    2804196405199000000000289754000000000000000    000000000000000000000000000000000000000000000000000000000000                                                                                                  *
30106750525000120               122300598410110199612MARIA ROSANGELA SALMITO DOMINGUES SILVA                               00000001990                    1912196605199000000000705398000000000000000    000000000000000000000000000000000000000000000000000000000000                                                                                                  *
30106750525000120               122301087370111199312RITA CELIA ALVES ROCHA ALENCAR                                        00000001848                    0111196305199000000000200435000000000000000    000000000000000000000000000000000000000000000000000000000000                                                                                                  *
30106750525000120               122958419430104199712FLORA MARIA TELES PINTO                                               00000002050                    1904196505199000000000520096000000000000000    000000000000000000000000000000000000000000000000000000000000                                                                                                  *
30106750525000120               123005575000101199712SILVANO FONTENELE ROCHA DE CARVALHO                                   00000002018                    0704197005199000000000479668000000000000000    000000000000000000000000000000000000000000000000000000000000                                                                                                  *
30106750525000120               123177510620111199312EDITE TEIXEIRA SATIRO                                                 00000001665                    1508194805199000000000100416000000000000000    000000000000000000000000000000000000000000000000000000000000                                                                                                  *
30106750525000120               123178380790106199412GILCILEUDA FILGUEIRAS BARROS                                          00000001710                    0803196605199000000000291036000000000000000    000000000000000000000000000000000000000000000000000000000000                                                                                                  *
30106750525000120               123179383670111200012VIRGINIA MARIA PINHEIRO BASTOS                                        00000001869                    1412196605199000000000141081000000000000000    000000000000000000000000000000000000000000000000000000000000                                                                                                  *
30106750525000120               123317614870104199712CARLOS ANDRE DOS SANTOS DIOGENES                                      00000002047                    2510196505199000000000171043000000000000000    000000000000000000000000000000000000000000000000000000000000                                                                                                  *
30106750525000120               123489382290106199112GIUSEPPE ANGELO AMORA PICCININI                                       00000001712                    1412196605199000000000449769000000000000000    000000000000000000000000000000000000000000000000000000000000                                                                                                  *
30106750525000120               123519296180105199712GLAUCIO BARBOSA CASTRO                                                00000002130                    3107196805199000000000094140000000000000000    000000000000000000000000000000000000000000000000000000000000                                                                                                  *
30106750525000120               123520006710108200012GARDENIA MARIA DE HOLANDA SANTOS NASCIMENTO                           00000002182                    0106196305199000000000196037000000000000000    000000000000000000000000000000000000000000000000000000000000                                                                                                  *
30106750525000120               123520923120106199112FRANCISCO ANTONIO DA SILVA                                            00000001688                    2006196605199000000000141081000000000000000    000000000000000000000000000000000000000000000000000000000000                                                                                                  *
30106750525000120               123542067300103199512ANNELISE MONTENEGRO GRIESER LEAL DE SOUZA                             00000001626                    3004196405199000000000203483000000000000000    000000000000000000000000000000000000000000000000000000000000                                                                                                  *
30106750525000120               123566685880102199912INES RANGEL DE CASTRO ALVES                                           00000002145                    2803197005199000000000246932000000000000000    000000000000000000000000000000000000000000000000000000000000                                                                                                  *
30106750525000120               123602290460106200012JACQUELINE QUEZADO GONCALVES                                          00000002095                    1602196605199000000000534981000000000000000    000000000000000000000000000000000000000000000000000000000000                                                                                                  *
30106750525000120               123602569570106199512SAMIA MARIA CRUZ WERTON TORRES DE MELO                                00000001975                    0704196505199000000000274001000000000000000    000000000000000000000000000000000000000000000000000000000000                                                                                                  *
30106750525000120               123603678050110199712FRANCISCO ERALDO BASTOS URANO DE CARVALHO                             00000002099                    2911196705199000000000110878000000000000000    000000000000000000000000000000000000000000000000000000000000                                                                                                  *
30106750525000120               123660295020111199712ANTONIA SANDRA MARQUES DE AQUINO                                      00000002103                    2109196505199000000000121810000000000000000    000000000000000000000000000000000000000000000000000000000000                                                                                                  *
30106750525000120               123769868010109199912FRANCISCO JOSE LIBANIO DE MENEZES                                     00000002203                    0303196805199000000000272115000000000000000    000000000000000000000000000000000000000000000000000000000000                                                                                                  *
30106750525000120               123771493180110199412FRANCISCO OLIVEIRA MAIA SUASSUNA                                      00000001701                    0810195805199000000000225330000000000000000    000000000000000000000000000000000000000000000000000000000000                                                                                                  *
30106750525000120               123771614820106200012FERRUCIO FONTELES SILVA                                               00000002179                    0411196905199000000000163858000000000000000    000000000000000000000000000000000000000000000000000000000000                                                                                                  *
30106750525000120               124046052930112199412CARLOS JOSE ROLIM AGUIAR                                              00000001642                    1902196805199000000000199254000000000000000    000000000000000000000000000000000000000000000000000000000000                                                                                                  *
30106750525000120               124371231660102200212IRLANDA MARIA ALVES DE SOUZA                                          00000002007                    2111196705199000000000136059000000000000000    000000000000000000000000000000000000000000000000000000000000                                                                                                  *
30106750525000120               124453815000110199412VALERIA RODRIGUES DE ALMEIDA                                          00000001866                    1808197105199000000000420545000000000000000    000000000000000000000000000000000000000000000000000000000000                                                                                                  *
30106750525000120               124963326120101200312CAMILLO VERAS PEDROSA DA SILVA                                        00000009004                    0209197205199000000000520823000000000000000    000000000000000000000000000000000000000000000000000000000000                                                                                                  *
30106750525000120               125057731830110199912FERNANDA TEIXEIRA                                                     00000002188                    1011197405199000000000349865000000000000000    000000000000000000000000000000000000000000000000000000000000                                                                                                  *
30106750525000120               125131641741402201312AFONSO MEDEIROS DE OLIVEIRA JUNIOR                                    00000007687                    1709196805199000000000163151000000000000000    000000000000000000000000000000000000000000000000000000000000                                                                                                  *
30106750525000120               125230349310102199412FRANCISCA INES HOLANDA AGUIAR                                         00000001683                    1010195805199000000000681632000000000000000    000000000000000000000000000000000000000000000000000000000000                                                                                                  *
30106750525000120               125295361730101200312MARCUS ULYSSES SANTOS DE ALENCAR                                      00000009483                    2012197305199000000000141081000000000000000    000000000000000000000000000000000000000000000000000000000000                                                                                                  *
30106750525000120               125309134490104199812LUCIRENE ARAUJO MACIEL                                                00000002117                    0712197405199000000000597959000000000000000  05000000000024564000000000000000000000000000000000000000000000                                                                                                  *
30106750525000120               125313272090107200312ROMULO DE QUEIROZ CORDEIRO                                            00000002313                    0104197705199000000000161818000000000000000    000000000000000000000000000000000000000000000000000000000000                                                                                                  *
30106750525000120               125703611960110200112RICARDO ALVES DE MOURA                                                00000002300                    2309197505199000000000538561000000000000000    000000000000000000000000000000000000000000000000000000000000                                                                                                  *
30106750525000120               126181331980108200012ADRIANA CALS SILVA                                                    00000002244                    2209197105199000000000564316000000000000000    000000000000000000000000000000000000000000000000000000000000                                                                                                  *
30106750525000120               126628941900102199812LUCIANA PACHECO MONTEIRO VITORINO                                     00000002113                    0212197705199000000000298801000000000000000    000000000000000000000000000000000000000000000000000000000000                                                                                                  *
30106750525000120               126668221940105200312FABIO DA SILVA FREIRE                                                 00000002311                    1808197705199000000000275843000000000000000    000000000000000000000000000000000000000000000000000000000000                                                                                                  *
30106750525000120               127018191900106199412RITA CRISTINA ALBUQUERQUE FONSECA                                     00000001849                    2103196905199000000000183400000000000000000    000000000000000000000000000000000000000000000000000000000000                                                                                                  *
30106750525000120               127099741950111199712CELINE ANTONIA FREITAS DE OLIVEIRA                                    00000001647                    0901197105199000000000275843000000000000000    000000000000000000000000000000000000000000000000000000000000                                                                                                  *
30106750525000120               128042238510104199712LUISA KARINNE LIMA CARVALHO                                           00000002048                    0203197605199000000000156166000000000000000    000000000000000000000000000000000000000000000000000000000000                                                                                                  *
30106750525000120               128267261980108200012ANASTACIO MAGALHAES ANTERO                                            00000002215                    1102197905199000000000252681000000000000000    000000000000000000000000000000000000000000000000000000000000                                                                                                  *
30106750525000120               128312411990101200312VICENTE DE ARAUJO PINHEIRO                                            00000002158                    2501196105199000000000282160000000000000000    000000000000000000000000000000000000000000000000000000000000                                                                                                  *
30106750525000120               128498401910103200312ROBERTO VASCONCELOS TAVORA                                            00000002217                    2111197105199000000000369586000000000000000  05000000000043679000000000000000000000000000000000000000000000                                                                                                  *
30106750525000120               129374661940108199312MARIA DE FATIMA NOGUEIRA ELPIDIO                                      00000001788                    2211196305199000000000109831000000000000000    000000000000000000000000000000000000000000000000000000000000                                                                                                  *
30106750525000120               129408491980103199912THAYS BARRETO MESQUITA                                                00000002196                    1601198105199000000000437331000000000000000    000000000000000000000000000000000000000000000000000000000000                                                                                                  *
30106750525000120               129964061940103200312DANIEL VICTOR LOUSADA FERRAZ                                          00000002310                    1202198305199000000000388736000000000000000    000000000000000000000000000000000000000000000000000000000000                                                                                                  *
30106750525000120               132536261980107200312JOAO APOLINARIO JUNIOR                                                00000002312                    0102198205199000000000200460000000000000000    000000000000000000000000000000000000000000000000000000000000                                                                                                  *
30106750525000120               132676331910105200312ROBERTO DE OLIVEIRA SILVA                                             00000002309                    2405197705199000000000136059000000000000000    000000000000000000000000000000000000000000000000000000000000                                                                                                  *
30106750525000120               170008644760103199312MARCELO MONTEIRO BARROS                                               00000001811                    2701196005199000000000428433000000000000000    000000000000000000000000000000000000000000000000000000000000                                                                                                  *
30106750525000120               170094560520106199812ANTONIO TAUMATURGO DE LUCENA TORRES                                   00000002247                    2307195305199000000000349865000000000000000    000000000000000000000000000000000000000000000000000000000000                                                                                                  *
30106750525000120               170112102000102199912ITAMAR BELINI DE AZEVEDO SILVA                                        00000002253                    2103196105199000000000156900000000000000000    000000000000000000000000000000000000000000000000000000000000                                                                                                  *
30106750525000120               170155856080101200312GLEICE SAMPAIO DE OLIVEIRA FROTA                                      00000009047                    2711195505199000000000282421000000000000000    000000000000000000000000000000000000000000000000000000000000                                                                                                  *
30106750525000120               170156143140103199912VILMA VIEIRA DIAS                                                     00000002154                    1107195105199000000000093700000000000000000    000000000000000000000000000000000000000000000000000000000000                                                                                                  *
30106750525000120               170172484200101199712MARIA LUSMAR MELO                                                     00000002032                    3010196205199000000000261105000000000000000    000000000000000000000000000000000000000000000000000000000000                                                                                                  *
30106750525000120               170190115090110200112JOSE WALFRIDO MORORO MONTEIRO                                         00000002283                    2305196905199000000000388736000000000000000    000000000000000000000000000000000000000000000000000000000000                                                                                                  *
30106750525000120               170241599260106199112JOAQUINA MARIA GONCALVES LOIOLA                                       00000001734                    2502196105199000000000169296000000000000000    000000000000000000000000000000000000000000000000000000000000                                                                                                  *
30106750525000120               170255535200102199312REANGELA REIS GONCALVES MELLO                                         00000001841                    1602196405199000000000227412000000000000000    000000000000000000000000000000000000000000000000000000000000                                                                                                  *
30106750525000120               170256850010109199612SAMIA MARIA ARCANJO REGO                                              00000001985                    1407196505199000000000212136000000000000000    000000000000000000000000000000000000000000000000000000000000                                                                                                  *
30106750525000120               170262439750101199712HIDELBRANDO VIANA DA SILVA                                            00000002022                    1006195805199000000000567845000000000000000    000000000000000000000000000000000000000000000000000000000000                                                                                                  *
30106750525000120               170262900510111199212MARIA ELISETE MOTA DE OLIVEIRA                                        00000001793                    1811196305199000000000469448000000000000000    000000000000000000000000000000000000000000000000000000000000                                                                                                  *
30106750525000120               170315913310109199612CLAUDIA REJANE LEITAO MELO                                            00000001983                    1806196405199000000000185535000000000000000    000000000000000000000000000000000000000000000000000000000000                                                                                                  *
30106750525000120               170374032270104199412SORAYA CAMPOS BENICIO                                                 00000001861                    2006196605199000000000134114000000000000000    000000000000000000000000000000000000000000000000000000000000                                                                                                  *
30106750525000120               170411402190104200312ELBANO KLEBER SOARES CALDAS                                           00000009084                    2106196805199000000000109831000000000000000    000000000000000000000000000000000000000000000000000000000000                                                                                                  *
30106750525000120               170455886640110200112MARIA ROSIVANIA ALENCAR                                               00000002296                    1407197105199000000000504098000000000000000    000000000000000000000000000000000000000000000000000000000000                                                                                                  *
30106750525000120               170530867290104199712SANDRA MARIA GONCALVES PONTES                                         00000008853                    2201195605199000000000169296000000000000000    000000000000000000000000000000000000000000000000000000000000                                                                                                  *
30106750525000120               170543572460101200312MIRNA BARBOSA CASTRO                                                  00000009050                    2511196405199000000000392252000000000000000    000000000000000000000000000000000000000000000000000000000000                                                                                                  *
30106750525000120               170543786850106199112MARIA DILSA DE SOUSA ZUIM                                             00000001791                    0508194905199000000000121810000000000000000    000000000000000000000000000000000000000000000000000000000000                                                                                                  *
30106750525000120               170603720650106199712CLAUDIA MARIA DE SOUSA RABELO                                         00000002064                    2007197105199000000000376493000000000000000    000000000000000000000000000000000000000000000000000000000000                                                                                                  *
30106750525000120               170622029142010200812FRANCISCO ANTONIO FERNANDES OLIVEIRA SOBRINHO                         00000002220                    1106197705199000000000188281000000000000000    000000000000000000000000000000000000000000000000000000000000                                                                                                  *
30106750525000120               170655662910102200312ANTONIA MAURA DE LIMA                                                 00000009079                    1509197205199000000000266731000000000000000    000000000000000000000000000000000000000000000000000000000000                                                                                                  *
30106750525000120               181943906780111200112EUDES SOBREIRA FERNANDES FILHO                                        00000002125                    1803197205199000000000280054000000000000000    000000000000000000000000000000000000000000000000000000000000                                                                                                  *
30106750525000120               190016292560103200112GERALDO DOMINGOS PINTO NETTO                                          00000002285                    3105197005199000000000381792000000000000000    000000000000000000000000000000000000000000000000000000000000                                                                                                  *
30106750525000120               190076846310108199712CELIA MARIA PIRES DE MEDEIROS                                         00000002170                    1901196105199000000000093700000000000000000    000000000000000000000000000000000000000000000000000000000000                                                                                                  *
30106750525000120               190085331810103199912HOMERO CALS SILVA                                                     00000002207                    1104198005199000000000156900000000000000000    000000000000000000000000000000000000000000000000000000000000                                                                                                  *
30106750525000120               190088967210901198912HELENA GOMES DA SILVA                                                 00000001717                    2706194505199000000000155851000000000000000    000000000000000000000000000000000000000000000000000000000000                                                                                                  *
30106750525000120               190088973290103199812WLADIA PONTES NASCIMENTO                                              00000002118                    0506197105199000000000134643000000000000000    000000000000000000000000000000000000000000000000000000000000                                                                                                  *
30106750525000120               190088973370110199712VITOR CAVALCANTI COLARES                                              00000002233                    2007197805199000000000349865000000000000000    000000000000000000000000000000000000000000000000000000000000                                                                                                  *
30106750525000120               190088974340109199412JASIO CIDADE FERNANDES                                                00000001725                    3107197605199000000000093700000000000000000    000000000000000000000000000000000000000000000000000000000000                                                                                                  *
30106750525000120               190088974420106200012HELEN PATRICIA ALMEIDA LOPES                                          00000002190                    2211197005199000000000403924000000000000000    000000000000000000000000000000000000000000000000000000000000                                                                                                  *
30106750525000120               190088974500110199612ELLEN TIGRE PESSOA DE ARAUJO                                          00000001987                    2303197705199000000000239074000000000000000    000000000000000000000000000000000000000000000000000000000000                                                                                                  *
30106750525000120               190088974930104199512EDNICE BEZERRA DE MENEZES                                             00000001972                    1612197005199000000000334247000000000000000    000000000000000000000000000000000000000000000000000000000000                                                                                                  *
30106750525000120               190088995690108199312VIRNA LISI AGUIAR                                                     00000001870                    1709197305199000000000386177000000000000000    000000000000000000000000000000000000000000000000000000000000                                                                                                  *
30106750525000120               190088995850108200012VICTOR HUGO BARRETO MESQUITA                                          00000002197                    1512198105199000000000353750000000000000000    000000000000000000000000000000000000000000000000000000000000                                                                                                  *
30106750525000120               190088996230106200012VERA MARIA PIRES KAYATT VASCONCELOS                                   00000002183                    1311195505199000000000156900000000000000000    000000000000000000000000000000000000000000000000000000000000                                                                                                  *
30106750525000120               190088996660103199912VANIA CHRISTIANE DAMASCENO                                            00000002213                    2010197205199000000000316157000000000000000    000000000000000000000000000000000000000000000000000000000000                                                                                                  *
30106750525000120               190088996820101199712UBIRACI BARBOSA DA COSTA                                              00000002024                    0105195305199000000000278542000000000000000    000000000000000000000000000000000000000000000000000000000000                                                                                                  *
30106750525000120               190088996900101200312TONY MARCIO FROTA BATISTA                                             00000002176                    0112198005199000000000141081000000000000000    000000000000000000000000000000000000000000000000000000000000                                                                                                  *
30106750525000120               190088997200112199812TEREZA CRISTINA BARRETO MESQUITA                                      00000002198                    0710195405199000000000426397000000000000000    000000000000000000000000000000000000000000000000000000000000                                                                                                  *
30106750525000120               190088997710106199112SONIA CAVALCANTE RODRIGUES                                            00000001860                    1802197005199000000000121810000000000000000    000000000000000000000000000000000000000000000000000000000000                                                                                                  *
30106750525000120               190088999170108199712ROSEMARY CASTRO LIMA                                                  00000002134                    1306196505199000000000320990000000000000000    000000000000000000000000000000000000000000000000000000000000                                                                                                  *
30106750525000120               190088999680102199412RONALDO NOGUEIRA AGUIAR                                               00000001851                    1612197205199000000000093700000000000000000    000000000000000000000000000000000000000000000000000000000000                                                                                                  *
30106750525000120               190088999840106199112RONALDO BRIGIDO DE SOUZA                                              00000001850                    2812196605199000000000121810000000000000000    000000000000000000000000000000000000000000000000000000000000                                                                                                  *
30106750525000120               190089000440109199612RODNEY PACHECO MONTEIRO                                               00000001984                    2702197505199000000000225726000000000000000    000000000000000000000000000000000000000000000000000000000000                                                                                                  *
30106750525000120               190089001090102199912RITA SOUSA DE BRITTO MOREIRA                                          00000002225                    0406197605199000000000305958000000000000000    000000000000000000000000000000000000000000000000000000000000                                                                                                  *
30106750525000120               190089001410109199112RISALVA TAVEIRA NOGUEIRA                                              00000001846                    0911195305199000000000254203000000000000000    000000000000000000000000000000000000000000000000000000000000                                                                                                  *
30106750525000120               190089001680108199712RICARDO NUNES FERREIRA                                                00000002078                    2203197605199000000000667701000000000000000    000000000000000000000000000000000000000000000000000000000000                                                                                                  *
30106750525000120               190089001840104199812RENATA CHAVES GENTIL                                                  00000002120                    2605197705199000000000155494000000000000000    000000000000000000000000000000000000000000000000000000000000                                                                                                  *
30106750525000120               190089001920102200312REGINA ESTELA HOLANDA FONTELES                                        00000001844                    2612195105199000000000172592000000000000000    000000000000000000000000000000000000000000000000000000000000                                                                                                  *
30106750525000120               190089002220107199312RAIMUNDO FERREIRA LIMA                                                00000001839                    0810195005199000000000187310000000000000000    000000000000000000000000000000000000000000000000000000000000                                                                                                  *
30106750525000120               190089002490101199712RAIMUNDO ELISIO FROTA NETO                                            00000002004                    2211197505199000000000125521000000000000000    000000000000000000000000000000000000000000000000000000000000                                                                                                  *
30106750525000120               190089002570105199812RAIMUNDO BARBOSA RIBEIRO                                              00000002121                    0703195005199000000000260030000000000000000    000000000000000000000000000000000000000000000000000000000000                                                                                                  *
30106750525000120               190089002650108199712RAIMUNDO ANISIO GONCALVES ARAUJO                                      00000002079                    1905196705199000000000109831000000000000000    000000000000000000000000000000000000000000000000000000000000                                                                                                  *
30106750525000120               190089003030102200512QUEILA LEMOS DE SOUZA GOMES COELHO                                    00000002036                    2008197205199000000000093700000000000000000    000000000000000000000000000000000000000000000000000000000000                                                                                                  *
30106750525000120               190089003110106199612QUEFREN LEMOS DE SOUZA GOMES                                          00000001836                    2703197005199000000000121810000000000000000    000000000000000000000000000000000000000000000000000000000000                                                                                                  *
30106750525000120               190089003380102199912PETRONILO ANACLETO DE OLIVEIRA                                        00000002277                    3105195205199000000000156900000000000000000    000000000000000000000000000000000000000000000000000000000000                                                                                                  *
30106750525000120               190089003540104199612PERICLES RODRIGUES DE LIMA E ARAUJO                                   00000002240                    1107197505199000000000156166000000000000000    000000000000000000000000000000000000000000000000000000000000                                                                                                  *
30106750525000120               190089003700103200112PEDRO AUGUSTO DE OLIVEIRA NETO                                        00000002192                    0105197505199000000000349865000000000000000    000000000000000000000000000000000000000000000000000000000000                                                                                                  *
30106750525000120               190089003890112199512PAULO SERGIO ANCHIETA MENDES                                          00000001981                    1508196605199000000000229094000000000000000    000000000000000000000000000000000000000000000000000000000000                                                                                                  *
30106750525000120               190089003970101200312PAULO ROBERTO ROCHA DA SILVA                                          00000001834                    2308196505199000000000159437000000000000000    000000000000000000000000000000000000000000000000000000000000                                                                                                  *
30106750525000120               190089004000106199112PAULO HUMBERTO MAIA PINHEIRO                                          00000001831                    2906195505199000000000199810000000000000000    000000000000000000000000000000000000000000000000000000000000                                                                                                  *
30106750525000120               190089005160106200312NICIA OLIVEIRA DE MAGALHAES MOREIRA                                   00000009074                    2308195705199000000000190895000000000000000    000000000000000000000000000000000000000000000000000000000000                                                                                                  *
30106750525000120               190089005590103199912NAZITA COSTA MENEZES CARVALHO                                         00000002291                    0609195005199000000000388736000000000000000    000000000000000000000000000000000000000000000000000000000000                                                                                                  *
30106750525000120               190089005910110199712NAGELA DE ARAUJO FONTENELE CAVALCANTI                                 00000002119                    2911197805199000000000141081000000000000000    000000000000000000000000000000000000000000000000000000000000                                                                                                  *
30106750525000120               190089006050101199712MICHELLE CARVALHO BORJA REBOUCAS                                      00000002006                    1905197805199000000000261105000000000000000    000000000000000000000000000000000000000000000000000000000000                                                                                                  *
30106750525000120               190089006130103199612MELICIA HOLANDA AGUIAR                                                00000001992                    2612197705199000000000345181000000000000000    000000000000000000000000000000000000000000000000000000000000                                                                                                  *
30106750525000120               190089006210104199712MAX MILLIAN DE CASTRO NERI                                            00000002056                    1301197405199000000000093700000000000000000    000000000000000000000000000000000000000000000000000000000000                                                                                                  *
30106750525000120               190089006720101199712MARLA ROXANA BARRETO ALVES                                            00000002034                    1710196905199000000000530466000000000000000    000000000000000000000000000000000000000000000000000000000000                                                                                                  *
30106750525000120               190089006800106199112MARIZETE COSTA CABRAL                                                 00000001816                    0908194805199000000000107755000000000000000    000000000000000000000000000000000000000000000000000000000000                                                                                                  *
30106750525000120               190089006990103200312MARIO MIRANDA DE ALBUQUERQUE                                          00000002084                    2111194805199000000000109831000000000000000    000000000000000000000000000000000000000000000000000000000000                                                                                                  *
30106750525000120               190089007450106199112LUZINES DANTAS DE AQUINO                                              00000001782                    2505196805199000000000121810000000000000000    000000000000000000000000000000000000000000000000000000000000                                                                                                  *
30106750525000120               190089007960106199112LUIZ ALFREDO COSTA RODRIGUES                                          00000001780                    0607196005199000000000136059000000000000000    000000000000000000000000000000000000000000000000000000000000                                                                                                  *
30106750525000120               190089008180108199912LUIS CARLOS DE CARVALHO SAMPAIO                                       00000002166                    1307197305199000000000220320000000000000000    000000000000000000000000000000000000000000000000000000000000                                                                                                  *
30106750525000120               190089008420110200012LUCIANO DOS SANTOS FERREIRA                                           00000002186                    1804198005199000000000154768000000000000000    000000000000000000000000000000000000000000000000000000000000                                                                                                  *
30106750525000120               190089008500106199112LUCIANA MARIA MAGALHAES DE SOUSA                                      00000001778                    2502197305199000000001169871000000000000000    000000000000000000000000000000000000000000000000000000000000                                                                                                  *
30106750525000120               190089008690106199312LUCIA MARIA RIOS RIBEIRO                                              00000001777                    2603194605199000000000211617000000000000000    000000000000000000000000000000000000000000000000000000000000                                                                                                  *
30106750525000120               190089008770111199312LUCIA DE ARAUJO DA SILVA                                              00000001775                    0203195605199000000000145770000000000000000    000000000000000000000000000000000000000000000000000000000000                                                                                                  *
30106750525000120               190089009150102199912LILIA PEQUENO DA COSTA                                                00000002250                    0111196205199000000000188281000000000000000    000000000000000000000000000000000000000000000000000000000000                                                                                                  *
30106750525000120               190089009230101200312LIGIA MARIA FARIAS CASTELO BRANCO                                     00000002068                    0402195505199000000000226171000000000000000    000000000000000000000000000000000000000000000000000000000000                                                                                                  *
30106750525000120               190089009820110199112KATIA REGINA DE SOUSA LEITE                                           00000001770                    0103196205199000000000208880000000000000000    000000000000000000000000000000000000000000000000000000000000                                                                                                  *
30106750525000120               190089010830101199712JOSE SILVEIRA DE LIMA                                                 00000002021                    2408196405199000000000293774000000000000000    000000000000000000000000000000000000000000000000000000000000                                                                                                  *
30106750525000120               190089011210106199112JOSE MOREIRA LOPES                                                    00000001757                    2704194205199000000000137921000000000000000    000000000000000000000000000000000000000000000000000000000000                                                                                                  *
30106750525000120               190089011560901198912JOSE MARCELO CARACAS DE SOUZA                                         00000001754                    0112197105199000000000426397000000000000000    000000000000000000000000000000000000000000000000000000000000                                                                                                  *
30106750525000120               190089011720110199812JOSE LUCENA SALVIANO                                                  00000002156                    2508195405199000000000273322000000000000000    000000000000000000000000000000000000000000000000000000000000                                                                                                  *
30106750525000120               190089011990102199912JOSE LEITE JUCA                                                       00000002249                    1501194105199000000000195990000000000000000    000000000000000000000000000000000000000000000000000000000000                                                                                                  *
30106750525000120               190089012100106199712JOSE EUVALDO ARAUJO MARTINS                                           00000001747                    1411196705199000000000093700000000000000000    000000000000000000000000000000000000000000000000000000000000                                                                                                  *
30106750525000120               190089012370103199812JOSE CLAYTON DE SOUSA ALCANTARA                                       00000008954                    2308195905199000000000826287000000000000000    000000000000000000000000000000000000000000000000000000000000                                                                                                  *
30106750525000120               190089012610106199112JOSE CARNEIRO DA SILVA                                                00000001744                    1201195405199000000000225330000000000000000    000000000000000000000000000000000000000000000000000000000000                                                                                                  *
30106750525000120               190089013180106199112JOSE ALEXANDRE DE ANDRADE                                             00000001737                    0305195805199000000000174609000000000000000    000000000000000000000000000000000000000000000000000000000000                                                                                                  *
30106750525000120               190089041710106199212ISABEL ELISA TEIXEIRA NOGUEIRA                                        00000001724                    0801196205199000000000121810000000000000000    000000000000000000000000000000000000000000000000000000000000                                                                                                  *
30106750525000120               190089042440102199912INES HELENA BRUNO DE ARRUDA                                           00000002144                    2505195705199000000000315190000000000000000    000000000000000000000000000000000000000000000000000000000000                                                                                                  *
30106750525000120               190089042600101199712IDAMARA MILHOME BRASIL                                                00000002001                    2908196805199000000000229094000000000000000    000000000000000000000000000000000000000000000000000000000000                                                                                                  *
30106750525000120               190089043090106200012HERBERT BARRETO PINHO                                                 00000002180                    2710197505199000000000411026000000000000000    000000000000000000000000000000000000000000000000000000000000                                                                                                  *
30106750525000120               190089043250110199712HELIDA MARIA GOIS RUFINO                                              00000002185                    2506196405199000000000121810000000000000000    000000000000000000000000000000000000000000000000000000000000                                                                                                  *
30106750525000120               190089043410103199312GLECIANA NORONHA SAMPAIO                                              00000002290                    0304196805199000000000117125000000000000000    000000000000000000000000000000000000000000000000000000000000                                                                                                  *
30106750525000120               190089043680103199312GLAUCIVANIA ALVES PEREIRA LACERDA                                     00000001713                    2308196805199000000000156166000000000000000    000000000000000000000000000000000000000000000000000000000000                                                                                                  *
30106750525000120               190089044060102199912GEOVANI MARCELO DE CASTRO OLIMPIO                                     00000002210                    0510195805199000000000653754000000000000000    000000000000000000000000000000000000000000000000000000000000                                                                                                  *
30106750525000120               190089044300101200312FATIMA LUCIA DE ANDRADE FEITOSA                                       00000002164                    1809195405199000000000431909000000000000000    000000000000000000000000000000000000000000000000000000000000                                                                                                  *
30106750525000120               190089044490109199412FATIMA CRISTIANE MAGALHAES DE SOUSA                                   00000001679                    1305197505199000000000797642000000000000000    000000000000000000000000000000000000000000000000000000000000                                                                                                  *
30106750525000120               190089044650101199712FABIO AMORIM PINHEIRO                                                 00000002015                    1006197505199000000000093700000000000000000    000000000000000000000000000000000000000000000000000000000000                                                                                                  *
30106750525000120               190089044730101199912EVELINE MARIA CORDEIRO BRANDAO                                        00000002218                    2610196905199000000000235352000000000000000    000000000000000000000000000000000000000000000000000000000000                                                                                                  *
30106750525000120               190089044810110199412EVELINE COSTA LOPES                                                   00000001677                    2712196505199000000000423238000000000000000    000000000000000000000000000000000000000000000000000000000000                                                                                                  *
30106750525000120               190089045030102199912EVANDRO FRANCO DE OLIVEIRA                                            00000002243                    2911196205199000000000235352000000000000000    000000000000000000000000000000000000000000000000000000000000                                                                                                  *
30106750525000120               190089045110106199112EUZILENE SANTOS GOMES                                                 00000001676                    2811197205199000000000121810000000000000000    000000000000000000000000000000000000000000000000000000000000                                                                                                  *
30106750525000120               190089045970109199912EMANUELA CASTRO BEZERRA                                               00000002265                    0802198205199000000000121810000000000000000    000000000000000000000000000000000000000000000000000000000000                                                                                                  *
30106750525000120               190089046940108199712DISNEY ANDRADE DA SILVA                                               00000002088                    2210196905199000000000252679000000000000000    000000000000000000000000000000000000000000000000000000000000                                                                                                  *
30106750525000120               190089047670102199412DANIELLE DE ARAUJO LIMA AGUIAR                                        00000001657                    2601197605199000000000490575000000000000000    000000000000000000000000000000000000000000000000000000000000                                                                                                  *
30106750525000120               190089047750104200012DANIELLE AZIM FREIRE DE CASTRO                                        00000002000                    2308197205199000000000125521000000000000000    000000000000000000000000000000000000000000000000000000000000                                                                                                  *
30106750525000120               190089048211109201512CYBELE PONTES GURGEL                                                  00000002151                    2901197805199000000000177846000000000000000    000000000000000000000000000000000000000000000000000000000000                                                                                                  *
30106750525000120               190089048721307201112CLAUDIA REGINA LOPES BENEVIDES                                        00000005545                    0505197405199000000000508447000000000000000    000000000000000000000000000000000000000000000000000000000000                                                                                                  *
30106750525000120               190089048800110199612CLAUDIA MESSIAS SOARES RODRIGUES                                      00000001989                    0304196705199000000000679900000000000000000    000000000000000000000000000000000000000000000000000000000000                                                                                                  *
30106750525000120               190089048990106199112CLAUDIA DOS SANTOS MORAES LUCIANO                                     00000001650                    2303197005199000000000253942000000000000000    000000000000000000000000000000000000000000000000000000000000                                                                                                  *
30106750525000120               190089049960111200112CELIA CARVALHO MOTA                                                   00000002201                    1106195805199000000000432713000000000000000    000000000000000000000000000000000000000000000000000000000000                                                                                                  *
30106750525000120               190089050540111199312CARMELITA CAZUZA DO NASCIMENTO                                        00000001645                    0508195005199000000000145770000000000000000    000000000000000000000000000000000000000000000000000000000000                                                                                                  *
30106750525000120               190089050890110200012CARLOS JOSE LUCENA LIMA                                               00000002211                    2104198005199000000000240033000000000000000    000000000000000000000000000000000000000000000000000000000000                                                                                                  *
30106750525000120               190089052080106199112AURILEUDA ASSUNCAO COLARES                                            00000001640                    0605197205199000000000543157000000000000000    000000000000000000000000000000000000000000000000000000000000                                                                                                  *
30106750525000120               190089053130110200012ANTONIO LUIZ LUCENA LIMA                                              00000002238                    0409197805199000000000360871000000000000000    000000000000000000000000000000000000000000000000000000000000                                                                                                  *
30106750525000120               190089053210104199812ANTONIO FERNANDES NETO                                                00000002116                    1011195805199000000000191087000000000000000    000000000000000000000000000000000000000000000000000000000000                                                                                                  *
30106750525000120               190089053640110199912ANTONIO ALBERTO ROCHA AGUIAR JUNIOR                                   00000002174                    0505198105199000000000555837000000000000000  05000000000049996000000000000000000000000000000000000000000000                                                                                                  *
30106750525000120               190089053720111199312ANTONIO ABELARDO RIBEIRO RANGEL                                       00000001630                    3011196905199000000000093700000000000000000    000000000000000000000000000000000000000000000000000000000000                                                                                                  *
30106750525000120               190089054290101200312ANTONIA GONCALVES DOS REIS                                            00000001998                    1601195305199000000000326974000000000000000    000000000000000000000000000000000000000000000000000000000000                                                                                                  *
30106750525000120               190089054880111199512ANGELA MARIA BRAGA BASTOS                                             00000002075                    2507195805199000000000248256000000000000000    000000000000000000000000000000000000000000000000000000000000                                                                                                  *
30106750525000120               190089055180103200112ANDREA LACERDA CESAR                                                  00000002216                    2201197105199000000000155494000000000000000    000000000000000000000000000000000000000000000000000000000000                                                                                                  *
30106750525000120               190089055420102199912ANA ROSELENE LIRA FROTA                                               00000002292                    3101196205199000000000235352000000000000000    000000000000000000000000000000000000000000000000000000000000                                                                                                  *
30106750525000120               190089055770101200012ANA MARY FONTENELE HOLANDA                                            00000002175                    0603196705199000000000352698000000000000000    000000000000000000000000000000000000000000000000000000000000                                                                                                  *
30106750525000120               190089055850106199112ANA MARIA CARACAS                                                     00000001622                    2303196205199000000000229808000000000000000    000000000000000000000000000000000000000000000000000000000000                                                                                                  *
30106750525000120               190089056070103199312ANA INEUDA TELES BORGES                                               00000001621                    1512193205199000000000121810000000000000000    000000000000000000000000000000000000000000000000000000000000                                                                                                  *
30106750525000120               190089056230101199712ANA CLAUDIA MACHADO BARRETO                                           00000002002                    0303196705199000000000248256000000000000000    000000000000000000000000000000000000000000000000000000000000                                                                                                  *
30106750525000120               190089056580101200312ANA CELINA ALVES BRINGEL                                              00000002308                    2006195905199000000000392254000000000000000    000000000000000000000000000000000000000000000000000000000000                                                                                                  *
30106750525000120               190089056740111199312ANA BARBOSA SILVA                                                     00000001619                    0808194605199000000000145770000000000000000    000000000000000000000000000000000000000000000000000000000000                                                                                                  *
30106750525000120               190089056820105199912ALZIRA VIANA CRUZ DOS SANTOS                                          00000002189                    0606196605199000000000432713000000000000000    000000000000000000000000000000000000000000000000000000000000                                                                                                  *
30106750525000120               190089057200111199412ALEXSSANDRO GOMES PORFIRIO                                            00000001618                    1201197305199000000000480515000000000000000    000000000000000000000000000000000000000000000000000000000000                                                                                                  *
30106750525000120               190089058520106199112ADAUTO ALVES MARTINS                                                  00000001609                    0601192505199000000000093700000000000000000    000000000000000000000000000000000000000000000000000000000000                                                                                                  *
30106750525000120               190133556790102199312WELLINGTON LUIZ GOMES DE MOURA                                        00000001873                    0810196505199000000000093700000000000000000    000000000000000000000000000000000000000000000000000000000000                                                                                                  *
30106750525000120               190133557090101200312VINIZIA TEIXEIRA RIBEIRO                                              00000002181                    2204197805199000000000156900000000000000000    000000000000000000000000000000000000000000000000000000000000                                                                                                  *
30106750525000120               190133557250103200312VENUSIA MARIA DE ANDRADE RIBEIRO                                      00000009497                    1504195705199000000000832713000000000000000    000000000000000000000000000000000000000000000000000000000000                                                                                                  *
30106750525000120               190133557410102199312VALERIA PINTO VERAS                                                   00000001865                    1307196605199000000000126972000000000000000    000000000000000000000000000000000000000000000000000000000000                                                                                                  *
30106750525000120               190133558140101200312THIAGO AGUIAR DE OLIVEIRA CORREIA                                     00000002314                    0708198305199000000000188990000000000000000    000000000000000000000000000000000000000000000000000000000000                                                                                                  *
30106750525000120               190133559380112200012SALOMAO MAXIMO SOARES DE MOURA                                        00000002288                    0907196605199000000000335201000000000000000    000000000000000000000000000000000000000000000000000000000000                                                                                                  *
30106750525000120               190133560550109199912PAULO BRENO FURTADO MOREIRA FILHO                                     00000002172                    2502197805199000000000253942000000000000000    000000000000000000000000000000000000000000000000000000000000                                                                                                  *
30106750525000120               190133561790101200312MIRELLA BESSA DE BARROS                                               00000001819                    2711197505199000000000480794000000000000000    000000000000000000000000000000000000000000000000000000000000                                                                                                  *
30106750525000120               190133562250105199712MARIANA LIMA FERNANDES                                                00000002062                    1902198105199000000000107755000000000000000    000000000000000000000000000000000000000000000000000000000000                                                                                                  *
30106750525000120               190133562330110199812MARIA VIRGINIA MELO MEIRELES PINTO                                    00000002133                    2406196105199000000000121810000000000000000    000000000000000000000000000000000000000000000000000000000000                                                                                                  *
30106750525000120               190133563060111200112MARIA NILCISLENE FROTA LOPES                                          00000002159                    1511195605199000000000133688000000000000000    000000000000000000000000000000000000000000000000000000000000                                                                                                  *
30106750525000120               190133563140106199112MARIA MARTA GONCALVES                                                 00000001806                    1703195605199000000000093700000000000000000    000000000000000000000000000000000000000000000000000000000000                                                                                                  *
30106750525000120               190133564540103200312MARIA ELIANE VIDAL DE SOUSA                                           00000002280                    1302196805199000000000271962000000000000000    000000000000000000000000000000000000000000000000000000000000                                                                                                  *
30106750525000120               190133564890103200312MARIA DO SOCORRO ROCHA ALMEIDA                                        00000002191                    0706194705199000000000410605000000000000000    000000000000000000000000000000000000000000000000000000000000                                                                                                  *
30106750525000120               190133565270102199912MARIA DE FATIMA SOARES OLIVEIRA MARQUES                               00000002259                    2505195605199000000000156900000000000000000    000000000000000000000000000000000000000000000000000000000000                                                                                                  *
30106750525000120               190133565510102199912MARIA DAS GRACAS DOS SANTOS GONCALVES ALENCAR                         00000002237                    1809196805199000000000272115000000000000000    000000000000000000000000000000000000000000000000000000000000                                                                                                  *
30106750525000120               190133566080102200312MARIA CELIA SOARES RODRIGUES                                          00000002236                    2306194705199000000000721234000000000000000    000000000000000000000000000000000000000000000000000000000000                                                                                                  *
30106750525000120               190133566240101200312MARIA ANTONIETA DE LUCENA                                             00000002146                    1805196505199000000000157932000000000000000    000000000000000000000000000000000000000000000000000000000000                                                                                                  *
30106750525000120               190133566750101199712MARCOS ANTONIO APOLIANO GOMES                                         00000002005                    1504196505199000000000334005000000000000000    000000000000000000000000000000000000000000000000000000000000                                                                                                  *
30106750525000120               190133568290108199712MANUEL JOSE BRITO JUCA                                                00000002076                    1702196605199000000000738392000000000000000    000000000000000000000000000000000000000000000000000000000000                                                                                                  *
30106750525000120               190133568450105200012MANOEL CLEMENTE DO NASCIMENTO                                         00000002224                    1305197005199000000000121810000000000000000    000000000000000000000000000000000000000000000000000000000000                                                                                                  *
30106750525000120               190133569770109200012LIZIANE DIAS CARNEIRO AGUIAR                                          00000002245                    0106196605199000000000284265000000000000000    000000000000000000000000000000000000000000000000000000000000                                                                                                  *
30106750525000120               190133570000108199312LILIANA GURGEL CAMPOS LIMA                                            00000001773                    2408197105199000000000254787000000000000000    000000000000000000000000000000000000000000000000000000000000                                                                                                  *
30106750525000120               190133570780103199912KARINE FRAGA COELHO                                                   00000002204                    1810197805199000000000440159000000000000000    000000000000000000000000000000000000000000000000000000000000                                                                                                  *
30106750525000120               190133570940109199712KARINA SIMOES VERAS AGUIAR                                            00000001769                    0711197305199000000000121810000000000000000    000000000000000000000000000000000000000000000000000000000000                                                                                                  *
30106750525000120               190133571910105199912JOSE KLENIO SAMPAIO VERAS                                             00000002169                    0106197605199000000000379020000000000000000    000000000000000000000000000000000000000000000000000000000000                                                                                                  *
30106750525000120               190133573610102200112ISABELA MARIA MAGALHAES CORREA                                        00000002281                    2307198105199000000000251041000000000000000    000000000000000000000000000000000000000000000000000000000000                                                                                                  *
30106750525000120               190133574500107199212GILSON ARAUJO DE CASTRO                                               00000001711                    2009197305199000000000193171000000000000000    000000000000000000000000000000000000000000000000000000000000                                                                                                  *
30106750525000120               190133575310106199112FRANCISCO REGINALDO SILVA DOS SANTOS                                  00000001702                    1404195705199000000000296569000000000000000    000000000000000000000000000000000000000000000000000000000000                                                                                                  *
30106750525000120               190133575580108199812FRANCISCO MARLON VIDAL FREITAS                                        00000002258                    0302197705199000000000156900000000000000000    000000000000000000000000000000000000000000000000000000000000                                                                                                  *
30106750525000120               190133575660102200312FRANCISCO MACEDO TAVARES                                              00000002266                    0401196605199000000000235352000000000000000    000000000000000000000000000000000000000000000000000000000000                                                                                                  *
30106750525000120               190133575820109199112FRANCISCO JOSE PEREIRA DE LIMA                                        00000001700                    1705197605199000000000121810000000000000000    000000000000000000000000000000000000000000000000000000000000                                                                                                  *
30106750525000120               190133576040108199712FRANCISCO FABIO DA SILVA                                              00000002086                    0504197305199000000000121810000000000000000    000000000000000000000000000000000000000000000000000000000000                                                                                                  *
30106750525000120               190133576630111199712FRANCISCO CRISTIANO DE LIMA                                           00000002109                    2903197605199000000000171824000000000000000    000000000000000000000000000000000000000000000000000000000000                                                                                                  *
30106750525000120               190133576980110199712FRANCISCO ALDENIR DA SILVA                                            00000002098                    0410197205199000000000291204000000000000000    000000000000000000000000000000000000000000000000000000000000                                                                                                  *
30106750525000120               190133577360109199112FRANCISCA MOREIRA DE CASTRO                                           00000001685                    3101196905199000000000128031000000000000000    000000000000000000000000000000000000000000000000000000000000                                                                                                  *
30106750525000120               190133577440102200312FRANCISCA MARIA VIDAL DE FREITAS ALMEIDA                              00000009085                    1203198105199000000000444551000000000000000    000000000000000000000000000000000000000000000000000000000000                                                                                                  *
30106750525000120               190133605670101200312FRANCISCA ALINE GOMES ASSUNCAO                                        00000002305                    1612197905199000000000234445000000000000000    000000000000000000000000000000000000000000000000000000000000                                                                                                  *
30106750525000120               190133606210108199712FERNANDA MARIA AZEVEDO VASCONCELOS                                    00000002090                    2605197005199000000000377495000000000000000    000000000000000000000000000000000000000000000000000000000000                                                                                                  *
30106750525000120               190133607290109199212ESTEFANIA DE CARVALHO TEIXEIRA                                        00000001674                    0101194505199000000000121810000000000000000    000000000000000000000000000000000000000000000000000000000000                                                                                                  *
