00                                                   1106750525000120ASSEMBLEIA LEGISLATIVA DO CE  ISAURA P D NOGUEIRA AV DESEMBAGADOR MOREIRA 2807                      DIONISIO TORRES     60170002FORTALEZA           CE008532773746ANDRESAPIRANGA@HOTMAIL.COM                                  2017031151         1               106750525000120                  *
10106750525000120000000000000000000000000000000000000ASSEMBLEIA LEGISLATIVA DO CEARA         AV DESEMBARGADOR MOREIRA 2807                     DIONISIO TORRES     60170002FORTALEZA           CE008532773732N7511600N100158200002402     000000000000000000000000000000000000000000000000000000000000                000000000000000000000000000000000000000000000    *
30106750525000120               100115308872103201712JOSE ALON AGUIAR PORTELA                                              00000017904                    0307194505199000000000100000000000000000000    000000000000000000000000000000000000000000000000000000000000                                                                                                  *
30106750525000120               100179079073006201612TEREZINHA BEZERRA DE MENEZES                                          00000028437                    0304194305199000000000100000000000000000000    000000000000000000000000000000000000000000000000000000000000                                                                                                  *
30106750525000120               100279056642002201512MARIA TEREZINHA CAVALCANTE DE SOUZA                                   00000026409                    0808194805199000000000368334000000000000000    000000000000000000000000000000000000000000000000000000000000                                                                                                  *
30106750525000120               100279391191501201312SONIA MARIA DE OLIVEIRA CORREIA                                       00000006792                    0302194105199000000000156166000000000000000    000000000000000000000000000000000000000000000000000000000000                                                                                                  *
30106750525000120               100716993220102200712FRANCISCA LENIR SILVA                                                 00000016418                    1812195505199000000000500000000000000000000    000000000000000000000000000000000000000000000000000000000000                                                                                                  *
30106750525000120               100717856282002201512MARCIA MARIA BISPO DE SANTANA PEIXOTO                                 00000026456                    1304195505199000000001200000000000000000000    000000000000000000000000000000000000000000000000000000000000                                                                                                  *
30106750525000120               100818534641901201712AGUINALDO CARLOS DE SOUZA                                             00000023468                    1809194705199000000000900000000000000000000    000000000000000000000000000000000000000000000000000000000000                                                                                                  *
30106750525000120               100978929361911201512FRANCISCA LINHARES CANAFISTULA                                        00000027840                    2904194905199000000000100000000000000000000    000000000000000000000000000000000000000000000000000000000000                                                                                                  *
30106750525000120               100994302122111201312ANTONIO LISBOA POLICARPO BENTO                                        00000009736                    0506195605199000000000400000000000000000000    000000000000000000000000000000000000000000000000000000000000                                                                                                  *
30106750525000120               101008622811601201312MARIA DE FATIMA BARROSO BEZERRA                                       00000017171                    2806194805199000000000200000000000000000000    000000000000000000000000000000000000000000000000000000000000                                                                                                  *
30106750525000120               101046381652303201512FRANCISCO ZUZA DE OLIVEIRA                                            00000026804                    1003194905199000000000400000000000000000000    000000000000000000000000000000000000000000000000000000000000                                                                                                  *
30106750525000120               101065008101908201612TEREZA NEUMA FARIAS RIBEIRO                                           00000028503                    2306195605199000000000400000000000000000000    000000000000000000000000000000000000000000000000000000000000                                                                                                  *
30106750525000120               101158512482201201312DEDICE DE ARAUJO E SILVA                                              00000024399                    2210193405199000000000000000000000000200000    000000000000000000000000000000000000000200000000000000000000                                                                                                  *
32106750525000120               101158512482201201312DEDICE DE ARAUJO E SILVA                                              L 16032017N                                                                                                                                                                                                                                 *
30106750525000120               101158536232308201612MARIA DE FATIMA AZEVEDO SOUZA                                         00000027526                    0303195305199000000000100000000000000000000    000000000000000000000000000000000000000000000000000000000000                                                                                                  *
30106750525000120               102220373662002201512JOSE AIRTON DOS SANTOS FEITOSA                                        00000019371                    1506195705199000000000120000000000000000000    000000000000000000000000000000000000000000000000000000000000                                                                                                  *
30106750525000120               102220651572002201512JOSE EGBERTO FARIAS ALENCAR                                           00000026425                    3110194705199000000000933333000000000000000    000000000000000000000000000000000000000000000000000000000000                                                                                                  *
30106750525000120               102221258181702201112FRANCISCO AILTON ALVES                                                00000018916                    1108195005199000000000800000000000000000000    000000000000000000000000000000000000000000000000000000000000                                                                                                  *
30106750525000120               102225744182002201712ANTONIO WILSON PLUTARCO NOGUEIRA                                      00000027733                    1306195205199000000000357090000000000000000    000000000000000000000000000000000000000000000000000000000000                                                                                                  *
30106750525000120               102253610162102201512FERNANDO BARBOSA PONTES                                               00000009824                    1901194705199000000000300000000000000000000    000000000000000000000000000000000000000000000000000000000000                                                                                                  *
30106750525000120               102254285952401201712ANA MARIA OLIVEIRA SOUSA                                              00000028744                    3007194605199000000000500000000000000000000    000000000000000000000000000000000000000000000000000000000000                                                                                                  *
30106750525000120               102324666262603201512MARIA NEUMA COELHO                                                    00000007221                    0504194305199000000000300000000000000000000    000000000000000000000000000000000000000000000000000000000000                                                                                                  *
30106750525000120               102325222832603201512JOSE EURICO ARARIPE                                                   00000007629                    2502194605199000000000000000000000000028333    000000000000000000000000000000000000000028333000000000000000                                                                                                  *
32106750525000120               102325222832603201512JOSE EURICO ARARIPE                                                   L 16032017N                                                                                                                                                                                                                                 *
30106750525000120               102364486652204201412JOSE LUCIANO SARAIVA DIAS                                             00000025818                    2204195105199000000000583334000000000000000    000000000000000000000000000000000000000000000000000000000000                                                                                                  *
30106750525000120               102610757371802201112PAULO DO AMARAL FIUZA                                                 00000015006                    2910194605199000000000170000000000000000000    000000000000000000000000000000000000000000000000000000000000                                                                                                  *
30106750525000120               102612573391702201112ANTONIO CARLOS PINHEIRO                                               00000021576                    3105195405199000000001841067000000000000000    000000000000000000000000000000000000000000000000000000000000                                                                                                  *
30106750525000120               102756620012303201712FRANCISCO ARNALDO SANTOS ALMEIDA                                      00000029204                    2708195005199000000000400000000000000000000    000000000000000000000000000000000000000000000000000000000000                                                                                                  *
30106750525000120               102758501420102199812IVANIZA ASSUNCAO GADELHA                                              00000006174                    2106195105199000000000130000000000000000000    000000000000000000000000000000000000000000000000000000000000                                                                                                  *
30106750525000120               103256853361808201512FRANCISCO DAS CHAGAS DE LIMA                                          00000027633                    0410195305199000000000150000000000000000000    000000000000000000000000000000000000000000000000000000000000                                                                                                  *
30106750525000120               103257358562002201712JOSE MAURICIO XIMENES MIRANDA                                         00000024192                    0502195305199000000000273000000000000000000    000000000000000000000000000000000000000000000000000000000000                                                                                                  *
30106750525000120               104281783482104201512JOSE FAUSTO DA SILVA                                                  00000027160                    3003194805199000000000833334000000000000000    000000000000000000000000000000000000000000000000000000000000                                                                                                  *
30106750525000120               104821330472401201712RAIMUNDO VIEIRA DA SILVA                                              00000028750                    1803195105199000000000200000000000000000000    000000000000000000000000000000000000000000000000000000000000                                                                                                  *
30106750525000120               104823085050102201712RAIMUNDO ALDEMIR ARAUJO VIEIRA                                        00000028827                    1009194905199000000000100000000000000000000    000000000000000000000000000000000000000000000000000000000000                                                                                                  *
30106750525000120               105558808901301201512FRANCISCO CHAGAS FILHO                                                00000021185                    3003195405199000000000400000000000000000000    000000000000000000000000000000000000000000000000000000000000                                                                                                  *
30106750525000120               106025741262102201512RAIMUNDO JOSE SOUSA VASCONCELOS                                       00000019456                    2603195005199000000000780000000000000000000    000000000000000000000000000000000000000000000000000000000000                                                                                                  *
30106750525000120               106066661490107200512ARLINDO AMARO SANTOS CASADO                                           00000009943                    1509195505199000000000400000000000000000000    000000000000000000000000000000000000000000000000000000000000                                                                                                  *
30106750525000120               106134745430102200712FRANCISCO RICARDO PARENTE MACEDO                                      00000016442                    0112195305199000000000368334000000000000000    000000000000000000000000000000000000000000000000000000000000                                                                                                  *
30106750525000120               106234807832002201512JOSE TRAJANO PEREIRA                                                  00000026534                    0607196005199000000000110000000000000000000    000000000000000000000000000000000000000000000000000000000000                                                                                                  *
30106750525000120               106293297502401201712ANA MARIA MOREIRA TEIXEIRA                                            00000028732                    2303195505199000000000585000000000000000000    000000000000000000000000000000000000000000000000000000000000                                                                                                  *
30106750525000120               106393374031602201112FRANCISCO JOSE TABOSA SERAFIM                                         00000021532                    2405195305199000000000700000000000000000000    000000000000000000000000000000000000000000000000000000000000                                                                                                  *
30106750525000120               106394139831404200812FREDERICO VIANA PEIXOTO                                               00000018805                    3005195805199000000000200000000000000000000    000000000000000000000000000000000000000000000000000000000000                                                                                                  *
30106750525000120               106517452141911201512ANTONIO CARLOS SOARES                                                 00000027839                    0605195405199000000000900000000000000000000    000000000000000000000000000000000000000000000000000000000000                                                                                                  *
30106750525000120               106577721671405201512FRANCISCO CARLOS QUENTAL DE NOROES                                    00000027301                    1402195705199000000000100000000000000000000    000000000000000000000000000000000000000000000000000000000000                                                                                                  *
30106750525000120               106609559781008201212EDNIR DANTAS SILVEIRA                                                 00000021320                    0409195305199000000000350000000000000000000    000000000000000000000000000000000000000000000000000000000000                                                                                                  *
30106750525000120               106622269491701201712JOSE AMARO BOARDMAN DE OLIVEIRA                                       00000028707                    1003194705199000000000273000000000000000000    000000000000000000000000000000000000000000000000000000000000                                                                                                  *
30106750525000120               106769651880806200912MARLEIDE CORREIA LIMA                                                 00000020351                    0408195605199000000000500000000000000000000    000000000000000000000000000000000000000000000000000000000000                                                                                                  *
30106750525000120               106787063922401201712JOSE ORLANDO BARROS                                                   00000028716                    2507195405199000000000120000000000000000000    000000000000000000000000000000000000000000000000000000000000                                                                                                  *
30106750525000120               106829420971502201612MARIA DE FATIMA DE OLIVEIRA                                           00000026555                    3009195205199000000000110000000000000000000    000000000000000000000000000000000000000000000000000000000000                                                                                                  *
30106750525000120               106829581712002201512MARIA LUCILEDA RABELO DA SILVA                                        00000026431                    2301195805199000000000100000000000000000000    000000000000000000000000000000000000000000000000000000000000                                                                                                  *
30106750525000120               106954469132009201112JOSE NEUDO DA SILVA                                                   00000020545                    0806195505199000000000350000000000000000000    000000000000000000000000000000000000000000000000000000000000                                                                                                  *
30106750525000120               106963625862103201612ANGELA MARIA DO CARMO MACHADO                                         00000021503                    0909195305199000000000595150000000000000000    000000000000000000000000000000000000000000000000000000000000                                                                                                  *
30106750525000120               107069733452002201512JOSE RIBAMAR DOS SANTOS                                               00000026440                    1603195505199000000000183334000000000000000    000000000000000000000000000000000000000000000000000000000000                                                                                                  *
30106750525000120               107184373542703201512FRANCISCA DE FATIMA SILVA DE SOUSA                                    00000026983                    0204195305199000000000500000000000000000000    000000000000000000000000000000000000000000000000000000000000                                                                                                  *
30106750525000120               107184529141811201612JOSE TARCISIO MESQUITA MARTINS                                        00000028636                    2007195705199000000000210000000000000000000    000000000000000000000000000000000000000000000000000000000000                                                                                                  *
30106750525000120               107184848241810201112ANTONIA DE FATIMA GUEDES GONDIM                                       00000022625                    1306195505199000000000300000000000000000000    000000000000000000000000000000000000000000000000000000000000                                                                                                  *
30106750525000120               107185977421807201312FRANCISCA EDGLA MACEDO MARTINS                                        00000025191                    0410195805199000000000150000000000000000000    000000000000000000000000000000000000000000000000000000000000                                                                                                  *
30106750525000120               107295259180806201612MARIA CLEONICE DO NASCIMENTO BEZERRA                                  00000028331                    0709195705199000000000150000000000000000000    000000000000000000000000000000000000000000000000000000000000                                                                                                  *
30106750525000120               107376188731802201712MARTA PAULA SOARES                                                    00000022274                    0901195605199000000000093700000000000000000    000000000000000000000000000000000000000000000000000000000000                                                                                                  *
30106750525000120               107377128532202201712JOSE TEIXEIRA DA SILVA                                                00000021314                    0605195605199000000000400000000000000000000    000000000000000000000000000000000000000000000000000000000000                                                                                                  *
30106750525000120               107384350631405201412MARIA FRANCISCA VIEIRA COUTINHO                                       00000025906                    0705195405199000000000130000000000000000000    000000000000000000000000000000000000000000000000000000000000                                                                                                  *
30106750525000120               107506016281102201512JOSE ORISVALDO SOUSA DA SILVA                                         00000026285                    0407196605199000000000600000000000000000000    000000000000000000000000000000000000000000000000000000000000                                                                                                  *
30106750525000120               107507766141902201512FRANCISCO SOARES NETO                                                 00000016486                    1410195705199000000000200000000000000000000    000000000000000000000000000000000000000000000000000000000000                                                                                                  *
30106750525000120               107652336702008201312MARIA SIMONE DE MOURA                                                 00000021506                    1705196105199000000000300000000000000000000    000000000000000000000000000000000000000000000000000000000000                                                                                                  *
30106750525000120               107655723430202201712FRANCISCO ELIOMAR RIBEIRO                                             00000026683                    1501194905199000000000446090000000000000000    000000000000000000000000000000000000000000000000000000000000                                                                                                  *
30106750525000120               107656305992102201512MANOEL DE SALES PINHEIRO                                              00000023026                    0506196405199000000000200000000000000000000    000000000000000000000000000000000000000000000000000000000000                                                                                                  *
30106750525000120               107730409162002201512FRANCISCO FRANCINET CUNHA                                             00000016236                    0303195905199000000000400000000000000000000    000000000000000000000000000000000000000000000000000000000000                                                                                                  *
30106750525000120               107857204960706201612RAIMUNDA ALVES DA COSTA                                               00000028330                    0610195105199000000000400000000000000000000    000000000000000000000000000000000000000000000000000000000000                                                                                                  *
30106750525000120               107858219770404201412MARIA VANDA LUCIA PORDEUS DE MELO                                     00000025798                    0910195705199000000000800000000000000000000    000000000000000000000000000000000000000000000000000000000000                                                                                                  *
30106750525000120               107918827292002201512JOSE BENTO VIEIRA                                                     00000026479                    1312196305199000000001380800000000000000000    000000000000000000000000000000000000000000000000000000000000                                                                                                  *
30106750525000120               108042989362102201512EUGENIA MARIA SARAIVA DA FONSECA                                      00000026528                    1411196005199000000000221000000000000000000    000000000000000000000000000000000000000000000000000000000000                                                                                                  *
30106750525000120               108181844072002201512PEDRO IVO NUNES BATISTA                                               00000026024                    2311196405199000000000300000000000000000000    000000000000000000000000000000000000000000000000000000000000                                                                                                  *
30106750525000120               108234881252005201412MARIA MEYRE TIMBO FREITAS                                             00000025920                    0107195705199000000000130000000000000000000    000000000000000000000000000000000000000000000000000000000000                                                                                                  *
30106750525000120               108319924571404201512CRISTINA HATSUE YOSHIKAWA LEITE ARAUJO                                00000027045                    2505196205199000000000933333000000000000000    000000000000000000000000000000000000000000000000000000000000                                                                                                  *
30106750525000120               108364601512301201312MARIA EDENIA MOREIRA LEMOS                                            00000019276                    0602195705199000000000300000000000000000000    000000000000000000000000000000000000000000000000000000000000                                                                                                  *
30106750525000120               108451736582202201212FRANCISCO OCEANO RAMOS DA SILVA                                       00000023648                    2410195905199000000000150000000000000000000    000000000000000000000000000000000000000000000000000000000000                                                                                                  *
30106750525000120               108452496032207201512LUIS MOURA DA COSTA                                                   00000027539                    0708195305199000000000300000000000000000000    000000000000000000000000000000000000000000000000000000000000                                                                                                  *
30106750525000120               108453452382401201712FRANCISCA MARIA DE OLIVEIRA NOBRE                                     00000028711                    0106196005199000000000446090000000000000000    000000000000000000000000000000000000000000000000000000000000                                                                                                  *
30106750525000120               108507419522102201512TEREZINHA PEREIRA DE LACERDA                                          00000005482                    2703194805199000000000216666000000000000000    000000000000000000000000000000000000000000000000000000000000                                                                                                  *
30106750525000120               108510367131802201112FRANCISCO ANTONIO MARQUES MOTA                                        00000021711                    0303196005199000000000600000000000000000000    000000000000000000000000000000000000000000000000000000000000                                                                                                  *
30106750525000120               108510513132603201512CESAR GONCALVES SOARES                                                00000024815                    1203195805199000000000585000000000000000000    000000000000000000000000000000000000000000000000000000000000                                                                                                  *
30106750525000120               108510520692401201712CLODOALDO PESSOA FILHO                                                00000028728                    0905196205199000000000000000000000000131250    000000000000000000000000000000000000000131250000000000000000                                                                                                  *
32106750525000120               108510520692401201712CLODOALDO PESSOA FILHO                                                L 16032017N                                                                                                                                                                                                                                 *
30106750525000120               108559354372401201712RAIMUNDO AUGUSTO SOBRINHO                                             00000028731                    3010196005199000000000150000000000000000000    000000000000000000000000000000000000000000000000000000000000                                                                                                  *
30106750525000120               108653290921811201612JOSEFA JOCENILDA DE SOUSA                                             00000028634                    2211196305199000000000300000000000000000000    000000000000000000000000000000000000000000000000000000000000                                                                                                  *
30106750525000120               108712966642501201712MASLOVA MARIA MESQUITA CAVALCANTE                                     00000002716                    1212196405199000000000300000000000000000000    000000000000000000000000000000000000000000000000000000000000                                                                                                  *
30106750525000120               108784780241802201312FRANCISCA ALVES ARAUJO                                                00000022924                    0102196005199000000001170000000000000000000    000000000000000000000000000000000000000000000000000000000000                                                                                                  *
30106750525000120               108786873241811201612SEVERINO ALVES BARBOSA NETO                                           00000028637                    1404196105199000000000210000000000000000000    000000000000000000000000000000000000000000000000000000000000                                                                                                  *
30106750525000120               108848335662303201712JOSE ROBERIO FREIRE VIANNA                                            00000016284                    1308196005199000000000500000000000000000000    000000000000000000000000000000000000000000000000000000000000                                                                                                  *
30106750525000120               108848431892002201512MANUEL CHAGAS RAMOS                                                   00000016223                    2710195905199000000000247000000000000000000    000000000000000000000000000000000000000000000000000000000000                                                                                                  *
30106750525000120               108848542102108201512PAULO RICARDO GURGEL BARROSO                                          00000017343                    0908196005199000000000600000000000000000000    000000000000000000000000000000000000000000000000000000000000                                                                                                  *
30106750525000120               108848857951405201212MARIA LUCINDA FERREIRA MACIEL                                         00000020455                    1105194805199000000000500000000000000000000    000000000000000000000000000000000000000000000000000000000000                                                                                                  *
30106750525000120               108884102011602201112VALTER PINHEIRO HOLANDA                                               00000015833                    2407196105199000000000400000000000000000000    000000000000000000000000000000000000000000000000000000000000                                                                                                  *
30106750525000120               109780213282603201512FRANCISCO LUIS DE AZEVEDO LIMA                                        00000021721                    2611195205199000000000350000000000000000000    000000000000000000000000000000000000000000000000000000000000                                                                                                  *
30106750525000120               111463224312603201512NEUDIMAR FRAGA                                                        00000007212                    1304194205199000000000300000000000000000000    000000000000000000000000000000000000000000000000000000000000                                                                                                  *
30106750525000120               111958510352303201712MARIA LOBO CAVALCANTE MOTA                                            00000017670                    1408194905199000000000200000000000000000000    000000000000000000000000000000000000000000000000000000000000                                                                                                  *
30106750525000120               112160084711907201612ABEL RODRIGUES AVELAR                                                 00000016234                    2203194505199000000000260000000000000000000    000000000000000000000000000000000000000000000000000000000000                                                                                                  *
30106750525000120               112985275162401201712MONICA LIMA DOS SANTOS                                                00000028745                    0105196605199000000000190000000000000000000    000000000000000000000000000000000000000000000000000000000000                                                                                                  *
30106750525000120               113641501441601201312JOSE AIRTON MARQUES                                                   00000024329                    1808194505199000000000400000000000000000000    000000000000000000000000000000000000000000000000000000000000                                                                                                  *
30106750525000120               113812453791705201612GENI GONCALVES AMORIM                                                 00000028275                    0710195705199000000000150000000000000000000    000000000000000000000000000000000000000000000000000000000000                                                                                                  *
30106750525000120               114306646272102201512MARCIO LOPES DA SILVA                                                 00000007289                    1705198005199000000000300000000000000000000    000000000000000000000000000000000000000000000000000000000000                                                                                                  *
30106750525000120               116548354922401201712LUIS FLAVIO MARTINS PINTO                                             00000026491                    2503196605199000000000221000000000000000000    000000000000000000000000000000000000000000000000000000000000                                                                                                  *
30106750525000120               116862069622303201712MARIA ZILDA VASCONCELOS FERNANDES VIANA                               00000029215                    0105198805199000000000500000000000000000000    000000000000000000000000000000000000000000000000000000000000                                                                                                  *
30106750525000120               116908218030102201712ROBERTA ARAUJO DE SOUZA                                               00000026602                    1802198005199000000000221000000000000000000    000000000000000000000000000000000000000000000000000000000000                                                                                                  *
30106750525000120               116954609491907201612ANA PAULA MONTENEGRO PERNAMBUCO COSTA LIMA                            00000028434                    1106198605199000000000600000000000000000000    000000000000000000000000000000000000000000000000000000000000                                                                                                  *
30106750525000120               117252995392401201712FRANCISCO DE ASSIS GUIMARAES VIANA                                    00000028739                    2104196205199000000000600000000000000000000    000000000000000000000000000000000000000000000000000000000000                                                                                                  *
30106750525000120               119500365312110201612FRANK ERICO TAVARES PEREIRA                                           00000028594                    1504197105199000000000500000000000000000000    000000000000000000000000000000000000000000000000000000000000                                                                                                  *
30106750525000120               119605696992111201612MARIA ALINE DUARTE RIBEIRO                                            00000028641                    1211197505199000000000350000000000000000000    000000000000000000000000000000000000000000000000000000000000                                                                                                  *
30106750525000120               119657658872002201512ROBERTO CARLOS DA SILVA ARAGAO                                        00000026433                    2808196905199000000000178000000000000000000    000000000000000000000000000000000000000000000000000000000000                                                                                                  *
30106750525000120               119728096061901201712NIGYDRA CARLA GONCALVES PINTO DANIEL                                  00000027524                    1706198305199000000000900000000000000000000    000000000000000000000000000000000000000000000000000000000000                                                                                                  *
30106750525000120               119764161452504201612GENECI PEREIRA DE OLIVEIRA                                            00000016046                    0504196905199000000000933333000000000000000    000000000000000000000000000000000000000000000000000000000000                                                                                                  *
30106750525000120               119886450801904201612THIAGO LUCAS DAVID DE CARVALHO SOARES PEREIRA                         00000021424                    2007198105199000000000833334000000000000000    000000000000000000000000000000000000000000000000000000000000                                                                                                  *
30106750525000120               119928128232401201712SERGIO RUDSON VIANA ALMEIDA                                           00000024298                    2301199005199000000000600000000000000000000    000000000000000000000000000000000000000000000000000000000000                                                                                                  *
30106750525000120               120006165872309201312ANTONIA LUSIMAR RAMOS FERREIRA LOPES                                  00000018162                    2802196305199000000000700000000000000000000    000000000000000000000000000000000000000000000000000000000000                                                                                                  *
30106750525000120               120006857590102200312RAIMUNDA NEUMA CORREIA LIMA                                           00000007411                    0105196005199000000000500000000000000000000    000000000000000000000000000000000000000000000000000000000000                                                                                                  *
30106750525000120               120008456911702201112MARIA DAS GRACAS LAVOR                                                00000010103                    0206196105199000000000500000000000000000000    000000000000000000000000000000000000000000000000000000000000                                                                                                  *
30106750525000120               120115765061607201412JOSAFA FERREIRA DUARTE                                                00000026021                    0707196005199000000000200000000000000000000    000000000000000000000000000000000000000000000000000000000000                                                                                                  *
30106750525000120               120116183141805201512MARLIZA DUARTE MAIA DA SILVA                                          00000027306                    2412195605199000000000093700000000000000000    000000000000000000000000000000000000000000000000000000000000                                                                                                  *
30106750525000120               120167220712002201512FRANCISCO PEREIRA DOS SANTOS                                          00000026572                    0311196105199000000000221000000000000000000    000000000000000000000000000000000000000000000000000000000000                                                                                                  *
30106750525000120               120175191482407201312EUGENIO CESAR NUNES DE ALENCAR                                        00000020763                    2108195905199000000000120000000000000000000    000000000000000000000000000000000000000000000000000000000000                                                                                                  *
30106750525000120               120249778652401201712SUEUDA MARIA SANTOS MOREIRA E SILVA                                   00000026582                    2005195905199000000000160000000000000000000    000000000000000000000000000000000000000000000000000000000000                                                                                                  *
30106750525000120               120249828341702201112MARIA OZANA DE BARROS                                                 00000021403                    2503196305199000000000446090000000000000000    000000000000000000000000000000000000000000000000000000000000                                                                                                  *
30106750525000120               120250335180102201712JERRY SANTOS ROCHA                                                    00000026213                    2101196905199000000000139000000000000000000    000000000000000000000000000000000000000000000000000000000000                                                                                                  *
30106750525000120               120251089681802201712JOSE VALDSON CAVALCANTE FERREIRA                                      00000028861                    0103195805199000000000139000000000000000000    000000000000000000000000000000000000000000000000000000000000                                                                                                  *
30106750525000120               120312796122311201212FRANCISCA SILVIA HELENA OLIVEIRA ANDRADE                              00000024201                    2406196105199000000000110000000000000000000    000000000000000000000000000000000000000000000000000000000000                                                                                                  *
30106750525000120               120317693341707201512FRANCISCO DE ASSIS ARAUJO                                             00000027529                    0801196305199000000000150000000000000000000    000000000000000000000000000000000000000000000000000000000000                                                                                                  *
30106750525000120               120402723820105200712ANA CLAUDIA SIEBRA DE QUEIROZ                                         00000017290                    2903196405199000000000400000000000000000000    000000000000000000000000000000000000000000000000000000000000                                                                                                  *
30106750525000120               120402763532205201312JOSE OSMAN QUEIROZ JUNIOR                                             00000025083                    0903196405199000000000300000000000000000000    000000000000000000000000000000000000000000000000000000000000                                                                                                  *
30106750525000120               120474223551608201012PAULO ORLANDO SALES MADEIRO                                           00000021236                    0908196205199000000000210000000000000000000    000000000000000000000000000000000000000000000000000000000000                                                                                                  *
30106750525000120               120487630831902201612RAIMUNDO ALVES ARAUJO                                                 00000023763                    1805196105199000000000900000000000000000000    000000000000000000000000000000000000000000000000000000000000                                                                                                  *
30106750525000120               120488004421504201512FRANCISCO NILO ALVES                                                  00000027077                    2102194105199000000000583334000000000000000    000000000000000000000000000000000000000000000000000000000000                                                                                                  *
30106750525000120               120488895591708201512VALERIA CHAVES DOS SANTOS PETRI FEITOSA                               00000027628                    1104196605199000000000600000000000000000000    000000000000000000000000000000000000000000000000000000000000                                                                                                  *
30106750525000120               120538582401310201612MARGARIDA MARIA MARQUES                                               00000026368                    2708196205199000000000350000000000000000000    000000000000000000000000000000000000000000000000000000000000                                                                                                  *
30106750525000120               120538702832102201512ANTONIO EVALDO FROTA FILHO                                            00000026571                    2005195905199000000000900000000000000000000    000000000000000000000000000000000000000000000000000000000000                                                                                                  *
30106750525000120               120538875852111201612MARIA ANTONIA DA SILVA SAMPAIO                                        00000028642                    2412195705199000000000446090000000000000000    000000000000000000000000000000000000000000000000000000000000                                                                                                  *
30106750525000120               120539869152002201512ANTONIO FABIO LIMA DE MELO                                            00000026436                    1101196405199000000000700000000000000000000    000000000000000000000000000000000000000000000000000000000000                                                                                                  *
30106750525000120               120664445202201201412JOSENICE DE MAGALHAES BARBOZA                                         00000025629                    0605196205199000000000239090000000000000000    000000000000000000000000000000000000000000000000000000000000                                                                                                  *
30106750525000120               120664783521902201512JOSE WELLINGTON AMORA DE SOUSA                                        00000002729                    1905196305199000000000400000000000000000000    000000000000000000000000000000000000000000000000000000000000                                                                                                  *
30106750525000120               120823760462401201712VICENTE SOARES NETO                                                   00000028736                    2710196105199000000000600000000000000000000    000000000000000000000000000000000000000000000000000000000000                                                                                                  *
30106750525000120               120824072272603201512JOSE OSVALDO ARAUJO DA SILVA                                          00000026927                    0601196205199000000000100000000000000000000    000000000000000000000000000000000000000000000000000000000000                                                                                                  *
30106750525000120               120825016731702201112IZABEL LOPES QUEIROS                                                  00000021407                    1101196105199000000000500000000000000000000    000000000000000000000000000000000000000000000000000000000000                                                                                                  *
30106750525000120               120825021732305201612RAIMUNDO NOBRE DE LIMA JUNIOR                                         00000026583                    2803196305199000000000400000000000000000000    000000000000000000000000000000000000000000000000000000000000                                                                                                  *
30106750525000120               120825967121701201712MARGARETH ROSE SOARES CAMPOS                                          00000016367                    0101196305199000000000200000000000000000000    000000000000000000000000000000000000000000000000000000000000                                                                                                  *
30106750525000120               121031416380102200712MARIA VALDIRA MOTA LOPES                                              00000008590                    1401196205199000000000100000000000000000000    000000000000000000000000000000000000000000000000000000000000                                                                                                  *
30106750525000120               121032405631802201712LUIZ CLAUDIO SUSSUARANA VIEIRA                                        00000019489                    3103196205199000000000150000000000000000000    000000000000000000000000000000000000000000000000000000000000                                                                                                  *
30106750525000120               121228288562002201512JOSE ERNESTO RODRIGUES SALES                                          00000026374                    1304196805199000000000178000000000000000000    000000000000000000000000000000000000000000000000000000000000                                                                                                  *
30106750525000120               121275423651701201712EDNA MARIA TEIXEIRA                                                   00000028706                    0103195305199000000000260000000000000000000    000000000000000000000000000000000000000000000000000000000000                                                                                                  *
30106750525000120               121276197591202201512JOSE VALDECI REBOUCAS                                                 00000026310                    2904196505199000000000585000000000000000000    000000000000000000000000000000000000000000000000000000000000                                                                                                  *
30106750525000120               121303024771802201712MARIA IOLANDA PEREIRA DUARTE                                          00000024367                    2412196105199000000000190000000000000000000    000000000000000000000000000000000000000000000000000000000000                                                                                                  *
30106750525000120               121339766652002201712ERNANI MARTINS DE OLIVEIRA                                            00000026764                    0606196305199000000000743484000000000000000    000000000000000000000000000000000000000000000000000000000000                                                                                                  *
30106750525000120               121395434262002201512CARLOS HENRIQUE CARNEIRO COLARES                                      00000016490                    1307197005199000000000466090000000000000000    000000000000000000000000000000000000000000000000000000000000                                                                                                  *
30106750525000120               121534575312002201512ALDIZIO FERREIRA DOS SANTOS                                           00000003810                    1908196205199000000000200000000000000000000    000000000000000000000000000000000000000000000000000000000000                                                                                                  *
30106750525000120               121535063542401201712MANOEL MOESIO BRAGA MOTA                                              00000007213                    1909196205199000000000400000000000000000000    000000000000000000000000000000000000000000000000000000000000                                                                                                  *
30106750525000120               121535248672202201712VALDEMAR GOMES BESERRA                                                00000020756                    0711196105199000000000500000000000000000000    000000000000000000000000000000000000000000000000000000000000                                                                                                  *
30106750525000120               121536188961102201512ILKA ALCIDES MACEDO                                                   00000026294                    0110196005199000000000900000000000000000000    000000000000000000000000000000000000000000000000000000000000                                                                                                  *
30106750525000120               121536526442102201512MARIA DE FATIMA DE QUEIROZ GUIMARAES                                  00000026505                    2403196205199000000000500000000000000000000    000000000000000000000000000000000000000000000000000000000000                                                                                                  *
30106750525000120               121536526791802201712MARIA CONCEBIDA DUARTE MONTEIRO                                       00000028862                    0601196505199000000000500000000000000000000    000000000000000000000000000000000000000000000000000000000000                                                                                                  *
30106750525000120               121536553331602200912CARLOS ALBERTO DE OLIVEIRA SOUSA                                      00000009845                    0212196305199000000000200000000000000000000    000000000000000000000000000000000000000000000000000000000000                                                                                                  *
30106750525000120               121536670481901201712FRANCISCO SERGIO DE SOUSA COSTA                                       00000028710                    0610196405199000000000247000000000000000000    000000000000000000000000000000000000000000000000000000000000                                                                                                  *
30106750525000120               121537266722102201512CARLOS CANDIDO DE CASTRO SOUSA                                        00000015535                    2606196105199000000000100000000000000000000    000000000000000000000000000000000000000000000000000000000000                                                                                                  *
30106750525000120               121776960722204201512FRANCISCO AIRTON PEREIRA DA SILVA                                     00000020612                    0210196205199000000000666666000000000000000    000000000000000000000000000000000000000000000000000000000000                                                                                                  *
30106750525000120               121791074061809201512LUZIA FEITOSA DE ALBUQUERQUE LIMA                                     00000020613                    2003196705199000000000600000000000000000000    000000000000000000000000000000000000000000000000000000000000                                                                                                  *
30106750525000120               121949120552101201312JOSE QUEIROZ LIMA NETO                                                00000024339                    1810196605199000000000300000000000000000000    000000000000000000000000000000000000000000000000000000000000                                                                                                  *
30106750525000120               121949295782102201512JORVANIA PEREIRA DA SILVA SAMPAIO                                     00000023032                    2105196305199000000000100000000000000000000    000000000000000000000000000000000000000000000000000000000000                                                                                                  *
30106750525000120               121949670381202201512RAIMUNDO NONATO LIMA ANGELO                                           00000007344                    2209196205199000000000585000000000000000000    000000000000000000000000000000000000000000000000000000000000                                                                                                  *
30106750525000120               122038510252002201512FRANCISCO ALIRIO AZEVEDO DAMASCENO                                    00000010070                    2101196105199000000000700000000000000000000    000000000000000000000000000000000000000000000000000000000000                                                                                                  *
30106750525000120               122146703880101200412EUGERIO FABIO SIEBRA DE QUEIROZ                                       00000007967                    2007196605199000000000300000000000000000000    000000000000000000000000000000000000000000000000000000000000                                                                                                  *
30106750525000120               122189637971701201712EVANDIR RODRIGUES ALVES                                               00000028704                    2711196705199000000000139000000000000000000    000000000000000000000000000000000000000000000000000000000000                                                                                                  *
30106750525000120               122300284742002201512FRANCISCO DE ASSIS ALMEIDA DE ALBUQUERQUE                             00000017594                    0702196505199000000000178000000000000000000    000000000000000000000000000000000000000000000000000000000000                                                                                                  *
30106750525000120               122300424851610201412ZULENE DE LIMA MORAES                                                 00000026104                    1807196705199000000000300000000000000000000    000000000000000000000000000000000000000000000000000000000000                                                                                                  *
30106750525000120               122301311781802201712JOSEFA VANIR LAVOR COURAS                                             00000028866                    0903196505199000000000200000000000000000000    000000000000000000000000000000000000000000000000000000000000                                                                                                  *
30106750525000120               122301932031602201112MARIA CONCELITA FERREIRA DA SILVA                                     00000016517                    1508196505199000000000585000000000000000000    000000000000000000000000000000000000000000000000000000000000                                                                                                  *
30106750525000120               122453659270102201712FRANCISCO EDSON FERREIRA DE MENESES                                   00000018211                    1402195905199000000000139000000000000000000    000000000000000000000000000000000000000000000000000000000000                                                                                                  *
30106750525000120               122805897712002201512MAKIS ALBERTO CORREIA SOARES                                          00000026025                    1808196805199000000000300000000000000000000    000000000000000000000000000000000000000000000000000000000000                                                                                                  *
30106750525000120               122805951510203201512JANE CARLA ALVES COELHO                                               00000023734                    1807196605199000000000500000000000000000000    000000000000000000000000000000000000000000000000000000000000                                                                                                  *
30106750525000120               122806268711902201512SUELY VIEIRA RODRIGUES                                                00000026349                    2808196705199000000000583334000000000000000    000000000000000000000000000000000000000000000000000000000000                                                                                                  *
30106750525000120               122806554562102201512GARDENIA MONTEIRO DA SILVA COSTA                                      00000023264                    0406197105199000000000200000000000000000000    000000000000000000000000000000000000000000000000000000000000                                                                                                  *
30106750525000120               122806739691803201512MESSIAS HOLANDA FERREIRA                                              00000025038                    1208197205199000000000100000000000000000000    000000000000000000000000000000000000000000000000000000000000                                                                                                  *
30106750525000120               122807986212202201712ANTONIO SAMPAIO MOREIRA                                               00000017907                    2005196405199000000000300000000000000000000    000000000000000000000000000000000000000000000000000000000000                                                                                                  *
30106750525000120               122908199742505201512MARIA DA PENHA AMARAL                                                 00000016290                    3004196705199000000000900000000000000000000    000000000000000000000000000000000000000000000000000000000000                                                                                                  *
30106750525000120               122958262001102201512ANTONIO ALVES FILHO                                                   00000026293                    2012196905199000000001170000000000000000000    000000000000000000000000000000000000000000000000000000000000                                                                                                  *
30106750525000120               122958325102210201512GEISA MARIA FLORENTINO MARTINS CAMBOIM                                00000011246                    0405196505199000000000247000000000000000000    000000000000000000000000000000000000000000000000000000000000                                                                                                  *
30106750525000120               122958943972102201712MARIA DOLORES MAGALHAES VAZ RODRIGUES                                 00000028896                    2005196805199000000000139000000000000000000    000000000000000000000000000000000000000000000000000000000000                                                                                                  *
30106750525000120               122959920461501201312JOSE AIRTON GOMES DA SILVA                                            00000021496                    0908196705199000000000221000000000000000000    000000000000000000000000000000000000000000000000000000000000                                                                                                  *
30106750525000120               123005053301805201512GERLANE PEREIRA LEITE                                                 00000027309                    0804196205199000000000300000000000000000000    000000000000000000000000000000000000000000000000000000000000                                                                                                  *
30106750525000120               123059019782301201312ROZIANE MARIA TEIXEIRA LUCAS                                          00000024475                    0307196705199000000000300000000000000000000    000000000000000000000000000000000000000000000000000000000000                                                                                                  *
30106750525000120               123059394440806201212MARIA FRANCIUZA RODRIGUES DA SILVA                                    00000023890                    2105196005199000000000700000000000000000000    000000000000000000000000000000000000000000000000000000000000                                                                                                  *
30106750525000120               123112681652002201512ORLANDO RIBEIRO GARCIA                                                00000026438                    1108196205199000000000700000000000000000000    000000000000000000000000000000000000000000000000000000000000                                                                                                  *
30106750525000120               123112957312102201512MARCELO CAMARDELLA DA SILVEIRA                                        00000007700                    2609196705199000000000600000000000000000000    000000000000000000000000000000000000000000000000000000000000                                                                                                  *
30106750525000120               123112975052401201312MARIA CLARA DOS SANTOS COSTA                                          00000024481                    0502197405199000000000110000000000000000000    000000000000000000000000000000000000000000000000000000000000                                                                                                  *
30106750525000120               123179534202401201712MARCIA HELENA ALVES DE MELO TAVORA                                    00000028730                    1203196805199000000000600000000000000000000    000000000000000000000000000000000000000000000000000000000000                                                                                                  *
30106750525000120               123179664921211200912MARIA DE LOURDES ALVES BATALHA                                        00000020787                    2211196405199000000000466090000000000000000    000000000000000000000000000000000000000000000000000000000000                                                                                                  *
30106750525000120               123215074482002201712ANTONIO VALDONIO DE OLIVEIRA BRITO                                    00000026525                    3108197205199000000000600000000000000000000    000000000000000000000000000000000000000000000000000000000000                                                                                                  *
30106750525000120               123270015032401201312GLAYDSON DUARTE DE LIMA                                               00000024482                    0903197005199000000000585000000000000000000    000000000000000000000000000000000000000000000000000000000000                                                                                                  *
30106750525000120               123317345011701201712PEDRO PAULO MENDES DE ALBUQUERQUE                                     00000028697                    2102196305199000000000221000000000000000000    000000000000000000000000000000000000000000000000000000000000                                                                                                  *
30106750525000120               123381057632007201612LAURA OLIVEIRA DA SILVA                                               00000028476                    1310196705199000000000446090000000000000000    000000000000000000000000000000000000000000000000000000000000                                                                                                  *
30106750525000120               123428932310102200712FRANCISCO HERMON JACINTO DE LIMA                                      00000016415                    0609194605199000000000156166000000000000000    000000000000000000000000000000000000000000000000000000000000                                                                                                  *
30106750525000120               123488373921001201712FRANCISCO EDVALSO BRAZ                                                00000028686                    2008196605199000000000150000000000000000000    000000000000000000000000000000000000000000000000000000000000                                                                                                  *
30106750525000120               123520207611311201412ALEXANDRE RICARDO SOUZA DO NASCIMENTO                                 00000015327                    2903197105199000000000247000000000000000000    000000000000000000000000000000000000000000000000000000000000                                                                                                  *
30106750525000120               123520790652603201512LILIA MARIA DE SOUZA FARIAS                                           00000025030                    2908196705199000000000300000000000000000000    000000000000000000000000000000000000000000000000000000000000                                                                                                  *
30106750525000120               123566946192303201712SILVANA DE FREITAS FACANHA PESSOA                                     00000029205                    2306196705199000000000200000000000000000000    000000000000000000000000000000000000000000000000000000000000                                                                                                  *
30106750525000120               123602803191902201612FRANCISCO GERARDO GRANJA                                              00000009789                    2105196305199000000000247000000000000000000    000000000000000000000000000000000000000000000000000000000000                                                                                                  *
30106750525000120               123604209001610201412FRANCISCO GOIS FEITOSA                                                00000026102                    0706196505199000000000200000000000000000000    000000000000000000000000000000000000000000000000000000000000                                                                                                  *
30106750525000120               123695184152002201512MARIA LUCIMAR ROCHA LIMA                                              00000026358                    0709196705199000000000433334000000000000000    000000000000000000000000000000000000000000000000000000000000                                                                                                  *
30106750525000120               123695600632401201712ROSANGELA MARQUES ARAUJO                                              00000028753                    1304197305199000000000120000000000000000000    000000000000000000000000000000000000000000000000000000000000                                                                                                  *
30106750525000120               123771381111602201112ANA CLAUDIA BORGES DE PAULO                                           00000021529                    3004197005199000000000700000000000000000000    000000000000000000000000000000000000000000000000000000000000                                                                                                  *
30106750525000120               123771646271902201512CLAUDIA MARIA FERREIRA MAGALHAES VIDAL                                00000026340                    1106197105199000000000110000000000000000000    000000000000000000000000000000000000000000000000000000000000                                                                                                  *
30106750525000120               123798605822603201512AIRTON SALES BAYMA JUNIOR                                             00000016217                    2003196505199000000000350000000000000000000    000000000000000000000000000000000000000000000000000000000000                                                                                                  *
30106750525000120               124084275512102201512KUEZIA PESSOA DA SILVA                                                00000023036                    1309196705199000000000170000000000000000000    000000000000000000000000000000000000000000000000000000000000                                                                                                  *
30106750525000120               124124013751707201512MARIA ELIDA PINHEIRO                                                  00000027525                    1108196605199000000000400000000000000000000    000000000000000000000000000000000000000000000000000000000000                                                                                                  *
30106750525000120               124191614500802201112JOSE ERALDO VIANA LIMA                                                00000021364                    2608196905199000000000221000000000000000000    000000000000000000000000000000000000000000000000000000000000                                                                                                  *
30106750525000120               124194315392101201612SERGIO DE ABREU MACHADO                                               00000027935                    2311196405199000000000700000000000000000000    000000000000000000000000000000000000000000000000000000000000                                                                                                  *
30106750525000120               124279021031702201112JOSELIO NARCISO TEIXEIRA DA COSTA                                     00000021507                    1707197105199000000000130000000000000000000    000000000000000000000000000000000000000000000000000000000000                                                                                                  *
30106750525000120               124335027152007201112STENIO MENEZES CAVALCANTE JUNIOR                                      00000022935                    0904196905199000000000210000000000000000000    000000000000000000000000000000000000000000000000000000000000                                                                                                  *
30106750525000120               124335252001702201112MARIA DA ASSUNCAO DE LIMA                                             00000021397                    1508196605199000000000110000000000000000000    000000000000000000000000000000000000000000000000000000000000                                                                                                  *
30106750525000120               124370503472202201612MARIA LUIZA TEIXEIRA                                                  00000007804                    2405196505199000000000446090000000000000000    000000000000000000000000000000000000000000000000000000000000                                                                                                  *
30106750525000120               124370568412304201512JOSE WAGNER DE SOUZA LIMA                                             00000026616                    3010197105199000000000000000000000000025000    000000000000000000000000000000000000000025000000000000000000                                                                                                  *
32106750525000120               124370568412304201512JOSE WAGNER DE SOUZA LIMA                                             L 16032017N                                                                                                                                                                                                                                 *
30106750525000120               124371103232105201212LUIZENE DA CUNHA                                                      00000023857                    1404196205199000000000400000000000000000000    000000000000000000000000000000000000000000000000000000000000                                                                                                  *
30106750525000120               124371378171311201512ROSANGELA DA COSTA CORREIA                                            00000027818                    1708196905199000000000210000000000000000000    000000000000000000000000000000000000000000000000000000000000                                                                                                  *
30106750525000120               124458317431706201612MARIA ALBANISA LIMA PEIXOTO                                           00000028349                    0408197505199000000000100000000000000000000    000000000000000000000000000000000000000000000000000000000000                                                                                                  *
30106750525000120               124579320271902201512KATIA CRISTINA KARAN                                                  00000026391                    2505197105199000000000300000000000000000000    000000000000000000000000000000000000000000000000000000000000                                                                                                  *
30106750525000120               124585968962102201512FRANCISCO CLEBER FONETENELE CAMPOS                                    00000024299                    0306196805199000000000130000000000000000000    000000000000000000000000000000000000000000000000000000000000                                                                                                  *
30106750525000120               124613907562002201512FABIOLA JOCA NOLETO                                                   00000026414                    1710196605199000000000357090000000000000000    000000000000000000000000000000000000000000000000000000000000                                                                                                  *
30106750525000120               124614278972102201512ANTONIETA RODRIGUES MARTINS                                           00000025923                    0309196405199000000000400000000000000000000    000000000000000000000000000000000000000000000000000000000000                                                                                                  *
30106750525000120               124616339182303201712ANTONIO MARCOS CARACAS                                                00000017108                    1003196905199000000000200000000000000000000    000000000000000000000000000000000000000000000000000000000000                                                                                                  *
30106750525000120               124669926572002201512CHRISTIANNE BUFFAT SALES                                              00000005287                    2903197005199000000000500000000000000000000    000000000000000000000000000000000000000000000000000000000000                                                                                                  *
30106750525000120               124678816541609201612WAUFRANIO COUTINHO ROCHA                                              00000016516                    1911197205199000000000900000000000000000000    000000000000000000000000000000000000000000000000000000000000                                                                                                  *
30106750525000120               124748984511904201112LUCILENE DE SOUSA PEREIRA                                             00000022498                    2312197505199000000000333334000000000000000    000000000000000000000000000000000000000000000000000000000000                                                                                                  *
30106750525000120               124749072642002201512ANDREA BARDWIL CAMPOS                                                 00000026360                    1510197005199000000000296666000000000000000    000000000000000000000000000000000000000000000000000000000000                                                                                                  *
30106750525000120               124749167942202201712JOAO BOSCO DOS SANTOS GONCALVES                                       00000025026                    3101197005199000000000200000000000000000000    000000000000000000000000000000000000000000000000000000000000                                                                                                  *
30106750525000120               124749728992107201612FRANK RANIER VASCONCELOS DO PRADO                                     00000022571                    1009197205199000000000400000000000000000000    000000000000000000000000000000000000000000000000000000000000                                                                                                  *
30106750525000120               124749958482102201512MARIJOSE FERREIRA DOS SANTOS ALENCAR                                  00000026377                    1707197205199000000000500000000000000000000    000000000000000000000000000000000000000000000000000000000000                                                                                                  *
30106750525000120               124750041281702201412TANIA MARIA SILVEIRA DE SANTANA                                       00000025693                    2311197105199000000000190000000000000000000    000000000000000000000000000000000000000000000000000000000000                                                                                                  *
30106750525000120               124870760641902201512LUIS ELISEU GONCALVES MOREIRA MARIANO                                 00000026347                    1108197005199000000000160000000000000000000    000000000000000000000000000000000000000000000000000000000000                                                                                                  *
30106750525000120               124870958241002200912MARIA LUISA PESSOA LOPES                                              00000019593                    1503196805199000000000093700000000000000000    000000000000000000000000000000000000000000000000000000000000                                                                                                  *
30106750525000120               124877476512110201612CLEBER ALVES ROCHA                                                    00000021761                    2604196805199000000000093700000000000000000    000000000000000000000000000000000000000000000000000000000000                                                                                                  *
30106750525000120               124902642162403201712PAULINE QUEIROS CAULA                                                 00000015356                    1104197405199000000000200000000000000000000    000000000000000000000000000000000000000000000000000000000000                                                                                                  *
30106750525000120               124946508971911201412VIVIANE AGUIAR FERREIRA GOMES                                         00000024381                    0708196905199000000000100000000000000000000    000000000000000000000000000000000000000000000000000000000000                                                                                                  *
30106750525000120               124946747371802201612JOSE RIBAMAR SOARES CHAGAS                                            00000017130                    2911197005199000000000300000000000000000000    000000000000000000000000000000000000000000000000000000000000                                                                                                  *
30106750525000120               124947223401802201112KATIA NIVIA SILVA MARTINS                                             00000021767                    0807197105199000000000585000000000000000000    000000000000000000000000000000000000000000000000000000000000                                                                                                  *
30106750525000120               124947585152401201712FRANCISCA DE FATIMA MELO DE PAULA                                     00000028737                    2109196405199000000000500000000000000000000    000000000000000000000000000000000000000000000000000000000000                                                                                                  *
30106750525000120               124988017921102201512JOSE DELANO DE OLIVEIRA LIMA                                          00000007961                    1611196905199000000000933333000000000000000    000000000000000000000000000000000000000000000000000000000000                                                                                                  *
30106750525000120               125045256151602201112ADRIANO GLEISON RODRIGUES DA SILVA                                    00000021512                    1512197205199000000000221000000000000000000    000000000000000000000000000000000000000000000000000000000000                                                                                                  *
30106750525000120               125046015322401201712VALESKA BATISTA NOBRE                                                 00000021449                    2304197105199000000001200000000000000000000    000000000000000000000000000000000000000000000000000000000000                                                                                                  *
30106750525000120               125046203082002201512LIANNE LIMA DE ALENCAR                                                00000026411                    3008196805199000000000600000000000000000000    000000000000000000000000000000000000000000000000000000000000                                                                                                  *
30106750525000120               125087642312102201712LIA CASTELO BRANCO MARTINS                                            00000021728                    1307197405199000000000215000000000000000000    000000000000000000000000000000000000000000000000000000000000                                                                                                  *
30106750525000120               125087742611702201612AURORA RAQUEL LIMA DE SOUSA                                           00000027970                    0302197305199000000000400000000000000000000    000000000000000000000000000000000000000000000000000000000000                                                                                                  *
30106750525000120               125088255321907201612DARLAN CARNEIRO FARIAS DE FRANCA                                      00000028423                    3112197505199000000000466090000000000000000    000000000000000000000000000000000000000000000000000000000000                                                                                                  *
30106750525000120               125131337752401201712DAYSE DOS SANTOS VERAS                                                00000025647                    3003197405199000000000350000000000000000000    000000000000000000000000000000000000000000000000000000000000                                                                                                  *
30106750525000120               125131582552002201712JOSE NILDO NOBRE DANTAS                                               00000028870                    0606197205199000000000170000000000000000000    000000000000000000000000000000000000000000000000000000000000                                                                                                  *
30106750525000120               125131655612302201212ANTONIO BELARMINO BARROS                                              00000016313                    0702197405199000000000700000000000000000000    000000000000000000000000000000000000000000000000000000000000                                                                                                  *
30106750525000120               125175322670102201712ADELMAN ALMEIDA MORENO                                                00000023203                    1403196805199000000000110000000000000000000    000000000000000000000000000000000000000000000000000000000000                                                                                                  *
30106750525000120               125199741351802201712LEONCIO MENDES FARIAS FILHO                                           00000028864                    0108197305199000000000400000000000000000000    000000000000000000000000000000000000000000000000000000000000                                                                                                  *
30106750525000120               125306187732002201512ANTONIO AFRANIO DE FREITAS CASTELO                                    00000026369                    3112197105199000000000500000000000000000000    000000000000000000000000000000000000000000000000000000000000                                                                                                  *
30106750525000120               125306244390103200712LUCIA MARIA DA SILVA DINIZ                                            00000016663                    0106196105199000000000350000000000000000000    000000000000000000000000000000000000000000000000000000000000                                                                                                  *
30106750525000120               125306478542103201712FRANCISCO WELLINGTON MARQUES                                          00000029211                    2403197105199000000000350000000000000000000    000000000000000000000000000000000000000000000000000000000000                                                                                                  *
30106750525000120               125306645971808201612FRANCISCA GLAUCILENE ASSUNCAO CAVALCANTE                              00000019128                    1605196905199000000000400000000000000000000    000000000000000000000000000000000000000000000000000000000000                                                                                                  *
30106750525000120               125306771250102200712ANA PAULA PEREIRA DA SILVA                                            00000016410                    0306197505199000000000093700000000000000000    000000000000000000000000000000000000000000000000000000000000                                                                                                  *
30106750525000120               125307357022002201512ANTONEUSA MEIRELES FERNANDES                                          00000017397                    0105197105199000000000221000000000000000000    000000000000000000000000000000000000000000000000000000000000                                                                                                  *
30106750525000120               125309046520102200712ALESSANDRA MAGNA PEREIRA FREITAS                                      00000016485                    3004197505199000000000600000000000000000000    000000000000000000000000000000000000000000000000000000000000                                                                                                  *
30106750525000120               125311281331806201512ANTONIO EDWILSON COSTA                                                00000027429                    0401197805199000000000500000000000000000000    000000000000000000000000000000000000000000000000000000000000                                                                                                  *
30106750525000120               125311635912401201712RENATA YALA ARRUDA EVANGELISTA                                        00000021453                    1901197605199000000000110000000000000000000    000000000000000000000000000000000000000000000000000000000000                                                                                                  *
30106750525000120               125312969902204201512JOSE ARLINDO VERAS DE ARAUJO                                          00000026878                    1502197505199000000000583334000000000000000    000000000000000000000000000000000000000000000000000000000000                                                                                                  *
30106750525000120               125313256722603201512ROSINETE LIMA MONTEIRO TRIGUEIROS                                     00000021086                    1506197205199000000000350000000000000000000    000000000000000000000000000000000000000000000000000000000000                                                                                                  *
30106750525000120               125343268072203201212MARIA CRISTINA FERNANDES MELO                                         00000023732                    0611197405199000000000100000000000000000000    000000000000000000000000000000000000000000000000000000000000                                                                                                  *
30106750525000120               125514410822006201612PATRICIA ROCHA PONTE                                                  00000028353                    2001197305199000000000100000000000000000000    000000000000000000000000000000000000000000000000000000000000                                                                                                  *
30106750525000120               125514471881704201512MARIA ELIANE GOMES LIMA                                               00000027092                    2104197605199000000000780000000000000000000    000000000000000000000000000000000000000000000000000000000000                                                                                                  *
30106750525000120               125536044421102201612FRANCISCO JOSUE FREITAS DA SILVA                                      00000027949                    1609197505199000000000300000000000000000000    000000000000000000000000000000000000000000000000000000000000                                                                                                  *
30106750525000120               125544435582207201512RODRIGO CHASTINET BRAGA                                               00000007536                    2204197305199000000000400000000000000000000    000000000000000000000000000000000000000000000000000000000000                                                                                                  *
30106750525000120               125573331922203201712ANA LUCIA RODRIGUES MOURA                                             00000029218                    2706197105199000000000120000000000000000000    000000000000000000000000000000000000000000000000000000000000                                                                                                  *
30106750525000120               125863031902002201712JULIANA LUCENA GONDIM LADEIA                                          00000028886                    1006198105199000000000300000000000000000000    000000000000000000000000000000000000000000000000000000000000                                                                                                  *
30106750525000120               125906461961602201112MARTHA SHEILLA DO CARMO MONTEIRO                                      00000021434                    2304196805199000000000247000000000000000000    000000000000000000000000000000000000000000000000000000000000                                                                                                  *
30106750525000120               125960291991410201512MARIA GOMES DE SOUSA                                                  00000027750                    0112196405199000000000150000000000000000000    000000000000000000000000000000000000000000000000000000000000                                                                                                  *
30106750525000120               125987491992401201712LEVI AGUIAR CAMURCA                                                   00000017092                    2205197605199000000000300000000000000000000    000000000000000000000000000000000000000000000000000000000000                                                                                                  *
